:020000022000DC
:1048000068500210E1C1060069C206006BC20600D2
:104810006BC206006BC206006BC2060000000000FF
:10482000000000000000000000000000412409001A
:1048300081C2060000000000212609008926090027
:1048400081C2060081C2060081C2060081C2060044
:1048500081C2060081C2060081C2060081C2060034
:1048600081C2060081C2060081C2060081C2060024
:1048700081C2060081C2060081C206000D0E03003F
:1048800081C2060081C2060081C2060081C2060004
:104890002DEA020081C2060081C2060081C2060024
:1048A00081C2060081C2060081C2060081C20600E4
:1048B00081C2060081C2060081C2060081C20600D4
:1048C000092909003529090081C2060081C20600B4
:1048D00081C2060081C2060081C2060081C20600B4
:1048E00081C2060081C2060081C2060081C20600A4
:1048F00081C2060081C2060081C2060081C2060094
:1049000081C2060081C2060081C2060081C2060083
:1049100081C2060081C2060081C2060081C2060073
:10492000099A06002D9A0600519A0600759A06000B
:1049300081C2060081C2060081C2060081C2060053
:1049400081C2060081C2060081C2060081C2060043
:1049500081C2060081C2060081C2060081C2060033
:1049600081C2060081C2060081C2060081C2060023
:1049700081C2060081C2060081C2060081C2060013
:1049800081C2060081C2060081C2060081C2060003
:104990000000000000000000000000000000000017
:1049A0000000000000000000000000000000000007
:1049B00000000000000000000000000000000000F7
:1049C00000000000000000000000000000000000E7
:1049D00000000000000000000000000000000000D7
:1049E00000000000000000000000000000000000C7
:1049F00000000000000000000000000000000000B7
:104A000001F0FF01102A2BDB10F0070F08D010F87F
:104A1000013B013A8B422DD010F0070F42B3F6D183
:104A2000F0B441EA012141EA014122F007047FF09C
:104A300000070023F0E80256083C85EA010586EAF3
:104A4000010685FA47F5A3FA87F586FA47F6A5FA2F
:104A500087F68EB9EED1F0BC01F0FF0102F007023B
:104A600032B110F8013B013A83EA010313B1F8D1E6
:104A70000020704701387047002D06BF35460338C7
:104A8000073815F0010F07D1013015F4807F02BF00
:104A9000013015F4C03F0130F0BC0138704700BF51
:104AA00010F8012B11F8013B012A28BF9A42F7D0D8
:104AB000D01A7047034613F8012B002AFBD1181AAD
:104AC0000138704781F0004102E000BF83F00043ED
:104AD00030B54FEA41044FEA430594EA050F08BF99
:104AE00090EA020F1FBF54EA000C55EA020C7FEA5D
:104AF000645C7FEA655C00F0E2804FEA5454D4EBDA
:104B00005555B8BF6D420CDD2C4480EA020281EAA3
:104B1000030382EA000083EA010180EA020281EADB
:104B20000303362D88BF30BD11F0004F4FEA01312D
:104B30004FF4801C4CEA113102D0404261EB41013C
:104B400013F0004F4FEA03334CEA133302D05242C2
:104B500063EB430394EA050F00F0A780A4F101047E
:104B6000D5F1200E0DDB02FA0EFC22FA05F28018B8
:104B700041F1000103FA0EF2801843FA05F359419E
:104B80000EE0A5F120050EF1200E012A03FA0EFC1D
:104B900028BF4CF0020C43FA05F3C01851EBE37147
:104BA00001F0004507D54FF0000EDCF1000C7EEB64
:104BB00000006EEB0101B1F5801F1BD3B1F5001FA2
:104BC0000CD349085FEA30004FEA3C0C04F10104C1
:104BD0004FEA445212F5800F80F09A80BCF1004FEA
:104BE00008BF5FEA500C50F1000041EB045141EA6C
:104BF000050130BD5FEA4C0C404141EB0101013C35
:104C000028BFB1F5801FE9D291F0000F04BF014623
:104C10000020B1FA81F308BF2033A3F10B03B3F1F5
:104C200020020CDA0C3208DD02F1140CC2F10C0285
:104C300001FA0CF021FA02F10CE002F11402D8BFE3
:104C4000C2F1200C01FA02F120FA0CFCDCBF41EAAF
:104C50000C019040E41AA2BF01EB0451294330BD7E
:104C60006FEA04041F3C1CDA0C340EDC04F114045B
:104C7000C4F1200220FA04F001FA02F340EA030032
:104C800021FA04F345EA030130BDC4F10C04C4F178
:104C9000200220FA02F001FA04F340EA0300294658
:104CA00030BD21FA04F0294630BD94F0000F83F4A2
:104CB000801306BF81F480110134013D4EE77FEA85
:104CC000645C18BF7FEA655C29D094EA050F08BFD1
:104CD00090EA020F05D054EA000C04BF19461046B2
:104CE00030BD91EA030F1EBF0021002030BD5FEAF6
:104CF000545C05D14000494128BF41F0004130BD1E
:104D000014F580043CBF01F5801130BD01F0004571
:104D100045F0FE4141F470014FF0000030BD7FEAE4
:104D2000645C1ABF194610467FEA655C1CBF0B46DF
:104D3000024650EA013406BF52EA033591EA030FF6
:104D400041F4002130BD00BF90F0000F04BF0021EE
:104D5000704730B54FF4806404F132044FF0000521
:104D60004FF0000150E700BF90F0000F04BF00219A
:104D7000704730B54FF4806404F1320410F0004500
:104D800048BF40424FF000013EE700BF42004FEAFB
:104D9000E2014FEA31014FEA02701FBF12F07F4378
:104DA00093F07F4F81F06051704732F07F4208BF2F
:104DB000704793F07F4F04BF41F40021704730B536
:104DC0004FF4607401F0004521F000411CE700BF82
:104DD00050EA010208BF704730B54FF000050AE005
:104DE00050EA010208BF704730B511F0004502D506
:104DF000404261EB41014FF4806404F132045FEA08
:104E0000915C3FF4D8AE4FF003025FEADC0C18BFB0
:104E100003325FEADC0C18BF033202EBDC02C2F1A2
:104E2000200300FA03FC20FA02F001FA03FE40EA34
:104E30000E0021FA02F11444BDE600BF70B54FF038
:104E4000FF0C4CF4E06C1CEA11541DBF1CEA135516
:104E500094EA0C0F95EA0C0F00F0DEF82C4481EA7E
:104E6000030621EA4C5123EA4C5350EA013518BF9E
:104E700052EA033541F4801143F4801338D0A0FB8B
:104E800002CE4FF00005E1FB02E506F00042E0FB38
:104E900003E54FF00006E1FB03569CF0000F18BF3E
:104EA0004EF0010EA4F1FF04B6F5007F64F54074E6
:104EB00004D25FEA4E0E6D4146EB060642EAC62179
:104EC00041EA55514FEAC52040EA5E504FEACE2EE6
:104ED000B4F1FD0C88BFBCF5E06F1ED8BEF1004FE9
:104EE00008BF5FEA500E50F1000041EB045170BD65
:104EF00006F0004646EA010140EA020081EA0301A9
:104F0000B4EB5C04C2BFD4EB0C0541EA045170BDA4
:104F100041F480114FF0000E013C00F3AB8014F11E
:104F2000360FDEBF002001F0004170BDC4F1000467
:104F3000203C35DA0C341BDC04F11404C4F12005E8
:104F400000FA05F320FA04F001FA05F240EA020043
:104F500001F0004221F0004110EBD37021FA04F679
:104F600042EB06015EEA430E08BF20EAD37070BD33
:104F7000C4F10C04C4F1200500FA04F320FA05F092
:104F800001FA04F240EA020001F0004110EBD37094
:104F900041F100015EEA430E08BF20EAD37070BD04
:104FA000C4F1200500FA05F24EEA020E20FA04F3DD
:104FB00001FA05F243EA020321FA04F001F000418C
:104FC00021FA04F220EA020000EBD3705EEA430EFD
:104FD00008BF20EAD37070BD94F0000F0FD101F02C
:104FE0000046400041EB010111F4801F08BF013C65
:104FF000F7D041EA060195F0000F18BF704703F0A3
:105000000046520043EB030313F4801F08BF013D29
:10501000F7D043EA0603704794EA0C0F0CEA1355E5
:1050200018BF95EA0C0F0CD050EA410618BF52EA9F
:105030004306D1D181EA030101F000414FF00000A5
:1050400070BD50EA410606BF1046194652EA4306B3
:1050500019D094EA0C0F02D150EA013613D195EA27
:105060000C0F05D152EA03361CBF104619460AD16F
:1050700081EA030101F0004141F0FE4141F4700179
:105080004FF0000070BD41F0FE4141F4780170BD69
:1050900070B54FF0FF0C4CF4E06C1CEA11541DBFCE
:1050A0001CEA135594EA0C0F95EA0C0F00F0A7F8D0
:1050B000A4EB050481EA030E52EA03354FEA0131FD
:1050C00000F088804FEA03334FF0805545EA131310
:1050D00043EA12634FEA022245EA111545EA1065D8
:1050E0004FEA00260EF000419D4208BF964244F16F
:1050F000FD0404F5407402D25B084FEA3202B61A8E
:1051000065EB03055B084FEA32024FF480104FF461
:10511000002CB6EB020E75EB030E22BFB61A7546D5
:1051200040EA0C005B084FEA3202B6EB020E75EB68
:10513000030E22BFB61A754640EA5C005B084FEAD0
:105140003202B6EB020E75EB030E22BFB61A75469D
:1051500040EA9C005B084FEA3202B6EB020E75EBA8
:10516000030E22BFB61A754640EADC0055EA060E69
:1051700018D04FEA051545EA16754FEA06164FEAAC
:10518000C30343EA52734FEAC2025FEA1C1CC0D158
:1051900011F4801F0BD141EA00014FF000004FF0E5
:1051A000004CB6E711F4801F04BF01430020B4F1A6
:1051B000FD0C88BFBCF5E06F3FF6AFAEB5EB030C5E
:1051C00004BFB6EB020C5FEA500C50F1000041EB5B
:1051D000045170BD0EF0004E4EEA113114EB5C0428
:1051E000C2BFD4EB0C0541EA045170BD41F48011FB
:1051F0004FF0000E013C90E645EA060E8DE60CEA03
:10520000135594EA0C0F08BF95EA0C0F3FF43BAF1F
:1052100094EA0C0F0AD150EA01347FF434AF95EAD6
:105220000C0F7FF425AF104619462CE795EA0C0FBA
:1052300006D152EA03353FF4FDAE1046194622E787
:1052400050EA410618BF52EA43067FF4C5AE50EA61
:1052500041047FF40DAF52EA43057FF4EBAE12E751
:105260004FF0FF3C06E000BF4FF0010C02E000BF32
:105270004FF0010C4DF804CD4FEA410C7FEA6C5C15
:105280004FEA430C18BF7FEA6C5C1BD001B050EAB8
:10529000410C0CBF52EA430C91EA030F02BF90EAA3
:1052A000020F0020704710F1000F91EA030F58BF62
:1052B000994208BF90422CBFD8176FEAE37040F0C4
:1052C000010070474FEA410C7FEA6C5C02D150EA62
:1052D000013C07D14FEA430C7FEA6C5CD6D152EA1D
:1052E000033CD3D05DF8040B704700BF84461046E2
:1052F00062468C461946634600E000BF01B5FFF7E1
:10530000B7FF002848BF10F1000F01BD4DF808EDB0
:10531000FFF7F4FF0CBF012000205DF808FB00BF81
:105320004DF808EDFFF7EAFF34BF012000205DF8DB
:1053300008FB00BF4DF808EDFFF7E0FF94BF012028
:1053400000205DF808FB00BF4DF808EDFFF7CEFF29
:1053500094BF012000205DF808FB00BF4DF808ED68
:10536000FFF7C4FF34BF012000205DF808FB00BF39
:105370004FEA410C7FEA6C5C02D150EA013C0AD151
:105380004FEA430C7FEA6C5C02D152EA033C02D143
:105390004FF0000070474FF0010070474FEA4102A4
:1053A00012F5001215D211D56FF47873B3EB625277
:1053B00012D94FEAC12343F0004343EA505311F09E
:1053C000004F23FA02F018BF404270474FF0000030
:1053D000704750EA013005D111F0004008BF6FF06E
:1053E000004070474FF00000704700BF4A0011D2E4
:1053F00012F5001211D20DD56FF47873B3EB62522F
:105400000ED44FEAC12343F0004343EA505323FA3A
:1054100002F070474FF00000704750EA013002D1AF
:105420004FF0FF3070474FF0000070474FEA4102E5
:10543000B2F1E04324BFB3F5001CDCF1FE5C0DD9F2
:1054400001F0004C4FEAC0024CEA5070B2F1004F3C
:1054500040EB830008BF20F00100704711F0804F3F
:1054600021D113F13872BCBF01F00040704741F404
:1054700080114FEA5252C2F11802C2F1200C10FA08
:105480000CF320FA02F018BF40F001004FEAC123EC
:105490004FEAD32303FA0CFC40EA0C0023FA02F390
:1054A0004FEA4303CCE77FEA625307D150EA013366
:1054B0001EBF4FF0FE4040F44000704701F0004036
:1054C00040F0FE4040F40000704700BF80F0004014
:1054D00002E000BF81F0004142001FBF5FEA4103CC
:1054E00092EA030F7FEA226C7FEA236C6AD04FEACC
:1054F0001262D2EB1363C1BFD21841404840414011
:10550000B8BF5B42192B88BF704710F0004F40F4C2
:10551000000020F07F4018BF404211F0004F41F4DE
:10552000000121F07F4118BF494292EA030F3FD0AA
:10553000A2F1010241FA03FC10EB0C00C3F12003BD
:1055400001FA03F100F0004302D5494260EB40004C
:10555000B0F5000F13D3B0F1807F06D340084FEAB7
:10556000310102F10102FE2A51D2B1F1004F40EBAC
:10557000C25008BF20F0010040EA03007047490014
:1055800040EB0000013A28BFB0F5000FEDD2B0FAB1
:1055900080FCACF1080CB2EB0C0200FA0CF0AABFD4
:1055A00000EBC25052421843BCBFD0401843704772
:1055B00092F0000F81F4000106BF80F40000013278
:1055C000013BB5E74FEA41037FEA226C18BF7FEA4F
:1055D000236C21D092EA030F04D092F0000F08BF91
:1055E0000846704790EA010F1CBF0020704712F078
:1055F0007F4F04D1400028BF40F00040704712F1B7
:1056000000723CBF00F50000704700F0004343F01B
:10561000FE4040F4000070477FEA226216BF084651
:105620007FEA23630146420206BF5FEA412390EA14
:10563000010F40F4800070474FF0000304E000BF0A
:1056400010F0004348BF40425FEA000C08BF7047BB
:1056500043F0964301464FF000001CE050EA01027F
:1056600008BF70474FF000030AE000BF50EA010294
:1056700008BF704711F0004302D5404261EB410181
:105680005FEA010C02BF84460146002043F0B643A6
:1056900008BFA3F18053A3F50003BCFA8CF2083ACB
:1056A000A3EBC25310DB01FA02FC634400FA02FCD4
:1056B000C2F12002BCF1004F20FA02F243EB0200DB
:1056C00008BF20F00100704702F1200201FA02FC3D
:1056D000C2F1200250EA4C0021FA02F243EB020030
:1056E00008BF20EADC7070477BB972B90029BEBFE1
:1056F00000204FF0004106E008BF00281CBF6FF0FB
:1057000000414FF0FF3000F0DFB9ADF1080C6DE95A
:1057100004CE002909DB002B1ADB00F06DF8DDF860
:1057200004E0DDE9022304B07047404261EB41012F
:10573000002B1BDB00F060F8DDF804E0DDE902235C
:1057400004B0404261EB4101524263EB43037047B6
:10575000524263EB430300F04FF8DDF804E0DDE96B
:10576000022304B0404261EB41017047524263EBB7
:10577000430300F041F8DDF804E0DDE9022304B062
:10578000524263EB4303704753B94AB9002908BF3B
:1057900000281CBF4FF0FF314FF0FF3000F094B9EC
:1057A000ADF1080C6DE904CE00F026F8DDF804E058
:1057B000DDE9022304B07047D0B5FFF7E7FA0C4BE0
:1057C000002206460F46FFF739FBFFF70FFE04469F
:1057D000FFF7BAFA074B0022FFF730FB02460B46F1
:1057E00030463946FFF772F9FFF700FE2146D0BD7B
:1057F0000000F03D0000F0412DE9F047089D04460F
:105800008E46002B4DD18A42944669D9B2FA82F273
:1058100052B101FA02F3C2F1200120FA01F10CFAAF
:1058200002FC41EA030E94404FEA1C48210CBEFBE7
:10583000F8F61FFA8CF708FB16E341EA034306FB70
:1058400007F199420AD91CEB030306F1FF3080F0FF
:105850001F81994240F21C81023E63445B1AA4B24C
:10586000B3FBF8F008FB103344EA034400FB07F7EE
:10587000A7420AD91CEB040400F1FF3380F00A812F
:10588000A74240F207816444023840EA0640E41B24
:1058900000261DB1D4400023C5E900433146BDE8D0
:1058A000F0878B4209D9002D00F0EF800026C5E972
:1058B000000130463146BDE8F087B3FA83F6002E8A
:1058C0004AD18B4202D3824200F2F980841A61EB02
:1058D000030301209E46002DE0D0C5E9004EDDE720
:1058E00002B9FFDEB2FA82F2002A40F09280A1EB08
:1058F0000C014FEA1C471FFA8CFE0126200CB1FB5D
:10590000F7F307FB131140EA01410EFB03F0884255
:1059100008D91CEB010103F1FF3802D2884200F2E2
:10592000CB804346091AA4B2B1FBF7F007FB101174
:1059300044EA01440EFB00FEA64508D91CEB040412
:1059400000F1FF3102D2A64500F2BB800846A4EB6D
:105950000E0440EA03409CE7C6F12007B34022FA58
:1059600007FC4CEA030C20FA07F401FA06F31C4387
:10597000F9404FEA1C4900FA06F3B1FBF9F8200C94
:105980001FFA8CFE09FB181140EA014108FB0EF0DA
:10599000884202FA06F20BD91CEB010108F1FF3A2A
:1059A00080F08880884240F28580A8F10208614436
:1059B000091AA4B2B1FBF9F009FB101144EA014144
:1059C00000FB0EFE8E4508D91CEB010100F1FF34EF
:1059D0006CD28E456AD90238614440EA0840A0FB87
:1059E0000294A1EB0E01A142C846A64656D353D05D
:1059F0005DB1B3EB080261EB0E0101FA07F722FA81
:105A000006F3F1401F43C5E9007100263146BDE8A9
:105A1000F087C2F12003D8400CFA02FC21FA03F30C
:105A2000914001434FEA1C471FFA8CFEB3FBF7F08D
:105A300007FB10360B0C43EA064300FB0EF69E42B2
:105A400004FA02F408D91CEB030300F1FF382FD24B
:105A50009E422DD9023863449B1B89B2B3FBF7F6F3
:105A600007FB163341EA034106FB0EF38B4208D9CC
:105A70001CEB010106F1FF3816D28B4214D9023E0D
:105A80006144C91A46EA004638E72E46284605E72B
:105A90000646E3E61846F8E64B45A9D2B9EB0208FC
:105AA00064EB0C0E0138A3E74646EAE7204694E78C
:105AB0004046D1E7D0467BE7023B614432E73046BF
:105AC00009E76444023842E7704700BF10B50D4A49
:105AD0000D4B1B6813600D4B02241C600C490968B8
:105AE000516007225A600B4B01221A7021460A4866
:105AF0006EF02AFF09480A4B1B78037321464AF0CF
:105B000079FB10BD103E0010D8390010183E00106F
:105B1000DC3900100C3E001098390010FC3D0010DC
:105B2000F83D001010B50A2117484AF073FB174BD7
:105B30001B7883B1164C0222164920466EF066FF90
:105B4000237B0BB9637B63B9114B1B7F13B9104BDC
:105B50005B7F7BB910BD104855F02CFDFFF7B6FFF9
:105B6000E8E701210D4855F025FD0D4B18785EF052
:105B700041F9E9E70221094855F01CFD084B187965
:105B80005EF038F9E6E700BFFC3D00100C3E001067
:105B900098390010103E001070890C00B0890C007C
:105BA000183E001010B549F0B3FC4AF0F3FA384B38
:105BB0000422384943F260504FF0DEF943F260535B
:105BC00098425DD854F0B6FD5FF0A8FA6BF072FA17
:105BD00050F0E2FD304849F075FC6CF021F82F4898
:105BE00049F070FC0446002052F05CFA49F0CEF90E
:105BF00048F0C2FC4DF02EFD53F010F950F0D8FCE7
:105C000054F0C4FC56F012F9204646F09BFB2448A1
:105C100049F058FC4EF09EF95BF04CFA4EF0CCF88F
:105C2000204849F04FFC6DF065FC6BF0E5FD62F03B
:105C300069FD5CF065F81C4849F044FC4BF0C6FF78
:105C400050F038FB49F082FFFB206AF03BFF174819
:105C500049F038FC47F0B8F9154849F033FC0446E0
:105C600070F0CCFF204646F09FFA124849F02AFC1B
:105C70006CF0EEF9104849F025FC104B187010BD7F
:105C8000A0F5555120390E4855F094FC9AE700BF15
:105C900000000010203E0010511C090079C30600CE
:105CA0007D3F070055350900611C0700EDCF060058
:105CB000856C09007D200900255B0200F83D00107D
:105CC000C8890C0008B5054855F074FC044B8022C7
:105CD00083F80A2383F8392308BD00BFEC890C0040
:105CE00000E100E008B5074855F064FC01206CF0C5
:105CF000C7F8FFF757FFFFF7E9FE71F005F849F025
:105D00001DFCFCE7008A0C0005207047FF2070474F
:105D1000F0B583B0164B0093164B019368462DF0F7
:105D200009FF154C03232370022565700126A67018
:105D3000E67005272771114BA36020462DF0E6FE83
:105D4000042323706570A670E57027710C4BA36067
:105D500020462DF0DBFE0B4805700B4B43602DF009
:105D600009FF2BF03CFD2DF089FF002003B0F0BDB2
:105D70000D5D0200095D020084730010C95D020020
:105D80008D5D020090730010A512050000B583B070
:105D900003460A4A106848B1ADF8001001936A46FC
:105DA000042126F0D1FE03B05DF804FB044B012270
:105DB000044903201CF0BEF8F5E700BF504C011069
:105DC000188A0C00288A0C0000B583B003460A4AE2
:105DD000106848B1ADF8001001936A46012126F021
:105DE000B3FE03B05DF804FB044B01220449032019
:105DF0001CF0A0F8F5E700BF504C0110188A0C0009
:105E0000288A0C00032070470120704700B583B03A
:105E1000094855F0CFFBFFF755FF084B01930323CB
:105E2000009300234FF4C052054906485FF044FF39
:105E3000002060F0A1F9FEE7488A0C008073001092
:105E4000648A0C00E55C020008B501205BF0CEFF1F
:105E5000002008BD7047FEE700B583B0074B0193F3
:105E60000323009300234FF40072054905485FF0B7
:105E700023FF60F0F9F903B05DF804FB987300109C
:105E8000708A0C000D5E020008B51DF05DFA00205E
:105E900060F06EF808BD000000B583B0074B0193B9
:105EA0000123009300234FF40062054905485FF089
:105EB00003FF002003B05DF804FB00BF9C730010DB
:105EC000788A0C00895E020008B50D484FF02AFF61
:105ED0004FF057FF5CF056F801205CF05DF84FF092
:105EE000B8F94FF0C1F9074855F064FB064855F082
:105EF00061FBFFF7D1FF1EF021F9FFF7ADFFFEE7D1
:105F0000B8FD0E00808A0C00988A0C0008B5436D1D
:105F100003B19847002008BD2DE9F04182B0064644
:105F200003238DF8073001F0C3FE0446876A056B32
:105F30006D00D0F838800DF1070002F08BFC10F0F6
:105F4000FF0F12D19DF80730072B26D0082B2ED03B
:105F5000062B11D043F070FF7F004FF47A720023BC
:105F6000A7FB0001FFF710FC0FE0174B01221749B8
:105F700003201BF0DFFFE5E743F05EFF4FF47A728A
:105F80000023A5FB0001FFF7FFFB9DF80730E3634B
:105F90003060002002B0BDE8F08143F04DFF4FF4C7
:105FA0007A720023A5FB0001FFF7EEFBEDE743F05B
:105FB00043FF4FEA48084FF47A720023A8FB000120
:105FC000FFF7E2FBE1E700BF048B0C00248B0C0021
:105FD0002DE9F0438DB000228DF82F208DF82E2072
:105FE0004FF0FF330A9340F209113A4B186826F03C
:105FF000ABFD384D384E394FDFF80881C5E0384CDD
:1060000046E2384B1B78002B40F0F68006A9286842
:10601000FFF77CFF334B01221A70EDE0324B1B7807
:10602000002B40F0EE8006A92868FFF76FFF2E4B8B
:1060300001221A70E5E02D4B1B78002B40F0E68022
:1060400006A92868FFF762FF284B01221A70DDE0DD
:10605000274B1B78002B40F0DE8006A92868FFF74D
:1060600055FF234B01221A70D5E0224B1B78002BE1
:1060700040F0E08006A92868FFF748FF1D4B012289
:106080001A70D7E01C4B1B78002B40F0D88006A973
:106090002868FFF73BFF184B01221A70CFE0174B1F
:1060A0001B78002B40F0D08006A92868FFF72EFF50
:1060B000124B01221A70C7E0114B1B78002B40F0E5
:1060C000C88006A92868FFF721FF0D4B01221A702E
:1060D000BFE000BFA0730010B7730010BC730010C6
:1060E000C8730010B1730010A6730010AE730010D7
:1060F000AC730010B5730010AA730010B4730010D5
:10610000A9730010B67300100023069307931023A1
:106110008DF81830DDE90423CDE90823A14B1B7865
:10612000012B00F0E48000239F4A13709D4A1370F6
:106130009E4A13709E4A13709E4A13709E4A1370B3
:106140009E4A13709E4A13709E4A13709E4A1370A3
:106150009E4A13709E4A13709E4A137088F800304E
:106160009D4A13709D4A13709D4A13709D4A137087
:106170009D4A13709D4A13709D4A13709D4A137077
:106180009D4A13704FF0FF330A930DF12E0240F237
:106190001511286826F0D8FC9DF82E3033700A9926
:1061A000386844F035FA10F1020F7FF428AF00236D
:1061B0008DF807300DF107024FF48571286826F03D
:1061C000C3FC9DF80730002B40F09B800024029414
:1061D00003940494059443F019FE814604900594B9
:1061E0000694079411238DF8183008900994704B89
:1061F0001B78012B3FF405AF6E4B1B78012B3FF44E
:106200000DAF6D4B1B78012B3FF415AF6B4B1B781B
:10621000012B3FF41DAF00230693079313238DF842
:106220001830DDE90423CDE90823654B1B78012BE9
:106230003FF41BAF634B1B78012B3FF423AF624B42
:106240001B78012B3FF42BAF604B1B78012B3FF4E5
:1062500033AF574B1B78574A12781343564A12787C
:106260001343564A12781343574A12781343574A36
:1062700012781343524A12781343524A1278134346
:10628000534A12781343534A1278134398F8002064
:106290001343444A127813437FF436AF0F238DF82B
:1062A000083002A92868FFF731FE3E4B01221A7020
:1062B00043F0C2FD0022031842EB02011B1841F11A
:1062C0000001C90041EA5371DB0018184FF47A72DB
:1062D0004FF0000341F10001FFF756FA43F062FF6F
:1062E00019F1190344F10004049305940CE7424B9F
:1062F0001B78002B7FF417AF06A92868FFF706FE6E
:1063000011E70AA8FFF708FE3FE7274B1B787BB190
:10631000264A13780133DBB213700F2B40F2A980A9
:10632000214B1B78012B0ED0204B10221A70A0E0BD
:106330000B238DF8183006A92868FFF7E7FD1A4BE4
:1063400001221A70E4E7174B1B78194A127813439D
:10635000184A12781343184A12781343174A1278CE
:106360001343194A12781343184A12781343144AF4
:1063700012781343134A12781343154A12781343C1
:10638000144A1278134398F800201343CCD10F23FA
:106390008DF8183006A92868FFF7B8FD014B0122D7
:1063A0001A70C1E7BA730010B9730010B873001007
:1063B000B0730010A5730010AD730010AB73001024
:1063C000B3730010A8730010B2730010A77300100D
:1063D000AF730010A4730010B1730010A673001007
:1063E000AE730010AC730010B5730010AA730010E8
:1063F000B4730010A9730010BB730010814B1B789D
:10640000002B36D133786BB1012B32D17E4B1B7808
:10641000002B2ED106A92868FFF778FD794B0122C1
:106420001A7026E006A92868FFF770FD754B012257
:106430001A701EE0754B1B78DBB9337863B1012B02
:1064400017D1714B1B78A3B906A92868FFF75EFD29
:106450006E4B01221A700CE006A92868FFF756FD62
:106460006A4B01221A7004E0694B1A78337813439F
:1064700052D00AA8FFF750FD0DF12F0240F20D1186
:10648000286826F061FB9DF82F30002B7FF47DAE4D
:10649000002121606160A160E1600123224628683B
:1064A00026F016FBC0B20128E3D100238DF81B3083
:1064B00023788DF8183062788DF81920A2788DF83D
:1064C0001A20A288ADF81C20E288ADF81E20D4E97D
:1064D0000201CDE90801013B0C2BCAD801A252F8F8
:1064E00023F000BF696402002965020035640200E0
:1064F000FD630200436502005D65020077650200EE
:1065000093650200AF650200CB6502000B630200D9
:1065100073640200E765020006A92868FFF7F6FC2D
:106520003B4B01221A70A4E73A4B1A783378134395
:106530009FD106A92868FFF7E9FC364B01221A70A3
:1065400097E7354B1A783378134392D106A9286818
:10655000FFF7DCFC304B01221A708AE72F4B1A78C8
:106560003378134385D106A92868FFF7CFFC2B4B5E
:1065700001221A707DE72A4B1A78337813437FF48F
:1065800078AF06A92868FFF7C1FC254B01221A70D5
:106590006FE7244B1A78337813437FF46AAF06A968
:1065A0002868FFF7B3FC1F4B01221A7061E71E4BEE
:1065B0001A78337813437FF45CAF06A92868FFF795
:1065C000A5FC194B01221A7053E7184B1A7833783F
:1065D00013437FF44EAF06A92868FFF797FC134BCF
:1065E00001221A7045E798F80020337813437FF4AE
:1065F00040AF06A92868FFF789FC012388F800301E
:1066000037E700BFAB730010BA730010AD73001012
:10661000B0730010A5730010B3730010A8730010BE
:10662000B2730010A7730010AF730010A4730010B2
:1066300008B5034B186844F02FF8002008BD00BFD0
:10664000BC73001010B58CB0002309930A930B9310
:10665000052808D0164B0122164903201BF06AFCBE
:1066600000200CB010BD0C4648689DF0B7FA0590AC
:10667000A0689DF0B3FA0690E0689DF0AFFA07902D
:1066800020699DF0ABFA08900CAB13E907008DE888
:10669000070005AB0FCB02F087F80028E1D0064BCE
:1066A0000122044903201BF045FC4FF0FF30D8E7DE
:1066B000308B0C00248B0C00608B0C0070B582B00A
:1066C00000238DF8073000F095F9774826F03EF961
:1066D000764B1860002879D0B0F84C3013F0080FD2
:1066E00040F084804FF4807126F052F9044600286F
:1066F00074D16E4D6E49286826F04EFA002240F2A1
:106700000F11286826F020FA00220821286826F0B8
:106710001BFA43F091FB0026031846EB06011B18F9
:1067200041F10001C90041EA5371DB0018184FF430
:106730007A724FF0000341F10001FFF725F843F0B2
:1067400031FD324640F20B11286826F0FDF943F086
:1067500073FB001846EB06014FF47A720023FFF733
:1067600013F843F01FFD8DF806600DF1060240F2AC
:106770001711286826F0E8F99DF806200C2A03D0A6
:10678000FF2A01D0002A4AD1484D00224FF48371DC
:10679000286826F0D9F900220721286826F0D4F9C4
:1067A000444B1B68002B40D0434B1B6863BB434AE0
:1067B0000021434843F044FB3F4B186020BB414B52
:1067C0000122414903201BF0B5FB3DE03F4B012274
:1067D0003D4903201BF0AEFB012415E03C4B012298
:1067E000394903201BF0A6FB01240DE000238DF89E
:1067F00005300DF1050240F2111126F0A5F99DF9C1
:106800000530022B03D00024204602B070BD314B6E
:1068100001222D4903201BF08DFB0124F4E740F2F7
:106820001911286826F090F9AEE7002211460120E0
:1068300043F092FE1F4B18600028B5D1264B012271
:10684000214903201BF076FB184C00224FF488717D
:10685000206826F079F9002240F20711206826F01E
:1068600073F9002240F20911206826F06DF9002228
:106870000921206826F068F90DF107024FF48471B0
:10688000206826F061F99DF907300BB10124BBE7C0
:10689000206826F0E7F8114B01220B4903201BF07A
:1068A00049FB0124B0E700BF307C0D00A07300104D
:1068B00031660200BC730010C07300108C8C0C0099
:1068C000D15F0200E88B0C00248B0C007C8B0C0049
:1068D000948B0C00A88B0C00D48B0C00008C0C004B
:1068E00030B583B0284826F031F8284B1860B0B195
:1068F000B0F84C3013F0080F18D1254B186820B1B0
:1069000043F000FB224B00221A60224B186820B192
:1069100043F01CFF1F4B00221A6003B030BD1E4B1A
:1069200001221E4903201BF005FBF6E700248DF829
:10693000074022464FF4887126F006F9134D22468F
:1069400040F20711286826F0FFF822460621286841
:1069500026F0FAF8224640F20911286826F0F4F8E9
:1069600022460921286826F0EFF80DF107024FF4BE
:106970008471286826F0E8F89DF90730002BBCD117
:10698000286826F06FF8B8E7307C0D00A07300107F
:10699000C0730010BC730010108C0C00248B0C0012
:1069A00010B501280CDD4C680C492046FEF778F83C
:1069B00068B10B492046FEF773F858B1002010BDAE
:1069C000084B0122084903201BF0B4FAF6E7FFF751
:1069D00075FEF3E7FFF784FFF0E700BF94D40C00E7
:1069E000D83D0D00308B0C00248B0C0008B525F031
:1069F0005DFE08BD08B5064825F0A8FF054B1860E8
:106A0000054B0122054906201BF094FA002008BD21
:106A1000B08C0C00D8730010B88C0C00E08C0C000B
:106A200010B584B000238DF80F30FFF7E3FF0DF1B0
:106A30000F0001F041F960B904469DF80F30009352
:106A4000084B0122084906201BF074FA204604B0C6
:106A500010BD064B0122044903201BF06BFA0124F0
:106A6000F4E700BFFC8C0C00E08C0C00E88C0C0000
:106A700070B586B005461646002403940494ADF81C
:106A8000144003A89DF01CFB009603AB224641F284
:106A9000530141EA05410848006825F0DBF910B9C7
:106AA000002006B070BD054B0122054903201BF0F4
:106AB00041FA0120F5E700BFD8730010148D0C00D7
:106AC000E08C0C0030B583B0092A19D80D46144665
:106AD000134B00221A605A601A810094012241F27D
:106AE000530141EA00410F48006825F0C5F978B923
:106AF00022460B4928469DF0E3FA002003B030BD42
:106B0000094B0122094903201BF014FA0120F5E783
:106B1000074B0122054903201BF00CFA0120EDE789
:106B2000DC730010D8730010248D0C00E08C0C0076
:106B3000448D0C0070B582B004460D4600238DF8DC
:106B40000730902018F020FC464B186046481CF097
:106B500033FB464B1860002861D01CF055FB43F016
:106B60006BF90021031849411B1841F10001C900CC
:106B700041EA5371DB0018184FF47A724FF00003AA
:106B800041F10001FEF700FE43F00CFB0DF10700A0
:106B900001F092F8002849D1324E3368344A01217D
:106BA000552026F069FB0021552026F0ABFB30680C
:106BB000032380F8743080F875300822294680302D
:106BC00019F01BF930682B4BC0F888300023C0F84F
:106BD0008C304FF48072214625F082FD0446002857
:106BE00038D101F065F80346234A4261062202705B
:106BF00053224270214A42601C4A106818640022E5
:106C00001A62184A12685A641CF038FB1C4B0122A5
:106C10001C4907201BF08EF9204602B070BD1A4BAC
:106C20000122184903201BF085F905E0174B0122CA
:106C3000144903201BF07EF90C4B18681CF01EFB56
:106C4000084B186818F0A4FB002018F0A1FB4FF0C7
:106C5000FF34E1E70E4B01220A4903201BF06AF9D9
:106C6000EAE700BFEC730010548D0C00E8730010CD
:106C7000ED69020010000010DC730010B08C0C00F5
:106C8000D08D0C00E08C0C00608D0C00848D0C000D
:106C9000A88D0C0000B583B0FFF7ACFE054B009348
:106CA0005323019369460448FFF744FF03B05DF89E
:106CB00004FB00BFB08C0C00307C0D0030B583B0FD
:106CC0000446214B0122214907201BF033F9204BB8
:106CD0001C60204B1B686BB11F4B1B68ABB11C4B7E
:106CE0001B6801221A721A68002050751B681876FA
:106CF00003B030BD236802225A7523680422DA7576
:106D0000236800221A760120F2E7134D0095134BF9
:106D100004224FF4007120461FF0AEF92B68002BBF
:106D2000DDD10F4B0122094903201BF003F9084B69
:106D30001B681A68022151751A680521D1751B68F4
:106D400000201876D4E700BF388E0C00548E0C005B
:106D5000F0730010F473001060740010656D020091
:106D60005C8E0C002DE9F04F87B000268DF817607F
:106D70007E4B01227E4907201BF0DCF87D4C324619
:106D80004FF48371206825F0DFFE3246072120682A
:106D900025F0DAFE324640F20911206825F0D4FED3
:106DA000B346B146B046744F744C724DDFF8D4A16F
:106DB00016E0002121606160A160E16001232246AC
:106DC000286825F085FE012810D00DF1170240F249
:106DD0000D11286825F0B8FE9DF81730002BE8D07B
:106DE0004FF0FF31386843F013FCE2E7A3680393E8
:106DF000B4F906300293B4F9043001932378009378
:106E0000534601225A4906201BF094F82378012B9F
:106E100021D0022B3CD0032B5ED0042B00F08180CC
:106E20000B2BD2D1564B1B68196800224A75196882
:106E30000420087619680B2081F8240019680A8458
:106E400019684A841A68D4E90201C2E90A015A6938
:106E500018689047B9E70136F6B2042EB5D9484B09
:106E60001B681A68002656751A68042111761A687C
:106E7000012182F824101A6816841A6856841A6848
:106E8000D4E90201C2E90A015A69186890479CE7EF
:106E900008F101085FFA88F8B8F1040F95D9384B6A
:106EA0001B681A684FF0000882F815801A680421E0
:106EB00011761A68022182F824101A68A2F820803C
:106EC0001A68A2F822801A68D4E90201C2E90A010C
:106ED0005A691868904778E709F101095FFA89F95A
:106EE000B9F1040F7FF671AF254B1B681A684FF09C
:106EF000000982F815901A68042111761A68032196
:106F000082F824101A68A2F820901A68A2F8229039
:106F10001A68D4E90201C2E90A015A69186890475F
:106F200053E70BF1010B5FFA8BFBBBF1040F7FF60C
:106F30004CAF134B1B681A684FF0000B82F815B06A
:106F4000196804220A76196881F824201A68A2F8C0
:106F500020B01A68A2F822B01A68D4E90201C2E986
:106F60000A015A69186890472FE700BF788E0C0015
:106F7000548E0C00F47300106474001068740010D8
:106F8000F0730010988E0C0070B584B00446002396
:106F90008DF80F308DF80E308DF80D30824825F0C9
:106FA000D5FC824B1860002800F0A180B0F84C306E
:106FB00013F0080F40F0A980032125F0E9FC002818
:106FC00040F09C807A4B00221A707A4B01227A4959
:106FD00007201AF0AFFF754D00224FF48771286823
:106FE00025F0B2FD00220821286825F0ADFD42F011
:106FF00023FF0026031846EB06011B1841F1000190
:10700000C90041EA5371DB0018184FF47A724FF04F
:10701000000341F10001FEF7B7FB43F0C3F80DF1A7
:107020000F023146286825F08FFD0546002840F004
:10703000A2809DF80F300093604B01225E4903202F
:107040001AF078FF594E00224FF48871306825F00D
:107050007BFD00220921306825F076FD0DF10E023E
:107060004FF48471306825F06FFD9DF90E30002BD0
:1070700000F0888042F0E0FE0021031849411B180F
:1070800041F10001C90041EA5371DB0018184FF4C7
:107090007A724FF0000341F10001FEF775FB43F0F7
:1070A00081F8474B0122444907201AF043FF404B27
:1070B0001B78012B6AD03E4B00221A709DF80F30CE
:1070C000332B01D1002D64D03E4B01223A490320DD
:1070D0001AF030FF236802225A7523680522DA75F8
:1070E000236800221A760125284604B070BD364B6D
:1070F0000122314903201AF01DFFEBE7334B012237
:107100002D4903201AF016FFE4E70DF10D0240F2BD
:10711000111125F019FD9DF90D30012B7FF455AFAC
:10712000FFF7DEFB42F088FE0021031849411B18DF
:1071300041F10001C90041EA5371DB0018184FF416
:107140007A724FF0000341F10001FEF71DFB43F09E
:1071500029F84FF48071154B186825F019FC18B9FF
:10716000134B01221A7030E7194B012212490320F8
:107170001AF0E0FEAEE7174B01220F4903201AF088
:10718000D9FE56E7306825F06DFC73E7FFF796FAF5
:1071900091E723685A752368332283F820202368F7
:1071A00005221A76A0E700BF307C0D00F4730010B2
:1071B00078740010F88E0C00548E0C003C8F0C007C
:1071C000548F0C00648F0C00B48E0C00CC8E0C001D
:1071D000E08E0C00088F0C0038B51748174B036081
:1071E000174B4360174B036100240472164B436630
:1071F00080F85C40C4610475144B836280F82040C1
:10720000134B436380F82C40124B8365012580F8B3
:10721000505042F210734365046480F83840C464EF
:1072200080F844401EF084FD0B4B2A460B49062093
:107230001AF080FE204638BDF87300107C8F0C00D9
:1072400004920C00896F020061720200BD76020098
:1072500059750200BD6C0200808F0C00548E0C002A
:107260002DE9F04385B00546002303938DF80B30DC
:107270008DF80A300369ABB100F118060024DFF87D
:10728000D492DFF8A882012756F8043F01930094B6
:107290004B463A46414603201AF04CFE01342B6916
:1072A000A342F1D8EC699B492046FDF7F9FB30B1C8
:1072B00099492046FDF7F4FB002840F0A480974848
:1072C00025F044FB964B1860002800F0A380B0F82E
:1072D0004C3013F0080F40F0AB80032125F058FB31
:1072E000002840F09E808F4B00221A708E4B0122A6
:1072F0008E4907201AF01EFE894C00224FF4877138
:10730000206825F021FC00220821206825F01CFCC3
:1073100042F092FD0021031849411B1841F1000180
:10732000C90041EA5371DB0018184FF47A724FF02C
:10733000000341F10001FEF727FA42F033FF7C49D8
:10734000286AFDF7ADFBD0B903AA4FF48C71206811
:1073500025F0FAFB002840F0A180039B0093754BB9
:107360000122724903201AF0E5FD039A4FF48B7154
:107370006B4B186825F0E8FB002840F0B980684C9A
:1073800000224FF48871206825F0DEFB00220921DD
:10739000206825F0D9FB0DF10B024FF484712068B1
:1073A00025F0D2FB9DF90B30002B00F0A88042F0B5
:1073B00043FD0021031849411B1841F10001C90098
:1073C00041EA5371DB0018184FF47A724FF0000352
:1073D00041F10001FEF7D8F942F0E4FE564B0122DC
:1073E000524907201AF0A6FD4E4B1B78012B00F0E6
:1073F0008A8000204B4B18702B6858752B681876C4
:1074000005B0BDE8F0834D4B0122484903201AF036
:1074100091FD62E04A4B0122444903201AF08AFDA3
:1074200042E0484B0122414903201AF083FD54E019
:107430000DF10A0240F2111125F086FB9DF90A3088
:10744000012B7FF453AFFFF74BFA42F0F5FC00221B
:10745000031852411B1842F10001C90041EA53715F
:10746000DB0018184FF47A724FF0000341F100016D
:10747000FEF78AF942F096FE4FF48071284B1868A7
:1074800025F086FA18B9274B01221A702EE72E4BE9
:107490000122264903201AF04DFD1EE02B4B01224C
:1074A000224903201AF046FD1D4C00224FF488713A
:1074B000206825F049FB00220921206825F044FBC3
:1074C0000DF10B024FF48471206825F03DFB9DF90E
:1074D0000B30DBB1134B00221A702B6802225A7555
:1074E0002B680522DA752B6800221A76012087E7BF
:1074F000174B01220D4903201AF01CFDD4E7206828
:1075000025F0B0FA53E7FFF7D9F872E7206825F0C5
:10751000A9FADFE7D08F0C00DC8F0C00307C0D0067
:10752000F473001078740010F88E0C00548E0C0068
:10753000749E0C005C900C00548F0C00E08F0C00CB
:10754000B48E0C00CC8E0C0010900C003C900C0003
:1075500088900C00A88F0C0070B582B00446002300
:107560008DF807304A49C069FDF79AFA002837D1EB
:107570000546484825F0EAF9474B1860002840D0F6
:10758000B0F84C3013F0080F42D142F055FC002106
:10759000031849411B1841F10001C90041EA537128
:1075A000DB0018184FF47A724FF0000341F100012C
:1075B000FEF7EAF842F0F6FD384B1B78012B64D059
:1075C0000026364B1E70364B0122364907201AF032
:1075D000B1FC23685E7523681E76284602B070BD34
:1075E000314B01222F4903201AF0A4FC2368022208
:1075F0005A7523680422DA75236800221A76012559
:10760000EBE72A4B0122274903201AF093FCEDE710
:1076100000224FF4887125F097FA1F4E002240F2A5
:107620000711306825F090FA002240F20911306805
:1076300025F08AFA00220921306825F085FA0DF13B
:1076400007024FF48471306825F07EFA9DF9073007
:10765000BBB1174B0122134907201AF06BFC154BE5
:10766000186820B11EF004FD124B00221A60124B64
:107670001868002889D043F069F80F4B00221A607F
:1076800083E7306825F0EEF9E3E7FFF717F897E7AF
:10769000AC900C00307C0D00F47300107874001076
:1076A000DC900C00548E0C00B8900C007C8B0C000D
:1076B000548F0C0060740010647400102DE9F043C6
:1076C00085B0064600238DF80F308DF80E30894BBB
:1076D0000122894907201AF02DFC3369ABB106F16C
:1076E00018050024DFF85092DFF80C82012755F8C6
:1076F000043F019300944B463A46414603201AF05A
:1077000019FC01343369A342F1D8F4697B4920465E
:10771000FDF7C6F920B17A492046FDF7C1F9C8B98D
:10772000784825F013F9784B186020B3B0F84C3046
:1077300013F0080F37D14FF4807125F029F908BBF9
:10774000724B00221A70724B01226B4907201AF00B
:10775000F1FB32E06F4B0122674903201AF0EAFB8C
:10776000336802225A7533680422DA7533680022BE
:107770001A7601205EE0684B01225F4903201AF06F
:10778000D9FBEDE7654B01225B4903201AF0D2FBE0
:10779000336802225A7533680522DA75336800228D
:1077A0001A76012046E00DF10E0240F2111125F08B
:1077B000CBF99DF90E30012B3FD0534C584920682E
:1077C00025F0EAF900224FF48771206825F0BCF912
:1077D00000220821206825F0B7F942F02DFB002592
:1077E000031845EB05011B1841F10001C90041EAEE
:1077F0005371DB0018184FF47A724FF0000341F117
:107800000001FDF7C1FF42F0CDFC2A4640F20B110A
:10781000206825F099F9434B1B68002B3DD0424B63
:107820000122354907201AF085FB3368002058757E
:107830003368187605B0BDE8F083FFF751F842F0E1
:10784000FBFA0022031852411B1842F10001C90043
:1078500041EA5371DB0018184FF47A724FF00003BD
:1078600041F10001FDF790FF42F09CFC4FF4807164
:10787000254B186825F08CF840B90122234B1A706B
:107880002A4B1D4907201AF055FB96E7284B012289
:10789000194903201AF04EFB7AE72A4629460120AF
:1078A00042F05AFE1F4B18600028B8D1214B01222C
:1078B000114903201AF03EFB2A464FF488712068D4
:1078C00025F042F92A460921206825F03DF90DF1FD
:1078D0000F024FF48471206825F036F99DF90F30BE
:1078E0001BB10A4B00221A7052E7074B186825F0AB
:1078F000B9F8F6E7FC900C00548E0C003C910C009B
:1079000048910C00307C0D00F47300107874001066
:1079100070910C004C910C007C8B0C00E08E0C00E4
:107920003D79020064740010C8910C0098910C001D
:1079300080910C00B0910C0018910C0008B5034B1D
:10794000186842F0A9FE002008BD00BF6474001052
:1079500070B584B090F87430032B0BD10C461546EB
:107960000B293FD8DFE801F00F152D2D2D2D191F04
:1079700025292D2D8F4B01228F4903201AF0DAFA89
:107980004FF0FF3003E0104600F096F900BB04B062
:1079900070BD104600F0B4F9F8E70021552025F03D
:1079A000B1FC0020F3E70121552025F0ABFC0020BD
:1079B000EDE700F009FB0020E9E700F021FB0020E3
:1079C000E5E700917D4B01227B4907201AF0B2FACE
:1079D00000947B4B0122784903201AF0ABFA4FF058
:1079E000FF30D4E7A1F201131A2B00F2D380DFE8B5
:1079F00003F0181D3035484E5358755D0E147079DC
:107A00007D818589B4B8BC8D95A0ACC0C50001F05E
:107A100057FA0646002E47D0C3E001F08DFB06461C
:107A2000F8E7A8B200F078F90646F3E70023ADF8CE
:107A30000E300DF10E0000F0ABF9064628B1614B97
:107A400001225D4903201AF075FABDF80E302B6053
:107A5000E0E7A8B200F0D4F90646DBE70023ADF872
:107A60000E300DF10E0000F007FA064628B1564B15
:107A70000122514903201AF05DFABDF80E302B6047
:107A8000C8E705F0380000F069FC0646C2E70120AF
:107A900000F028FA0646BDE7002000F023FA06466B
:107AA000B8E700F0C9FA2870002070E700238DF8CD
:107AB0000E300DF10E0000F0E3FA064628B1434BFC
:107AC00001223D4903201AF035FA9DF80E302B7043
:107AD000A0E7552025F068FC2870E5E700F0F0FAF3
:107AE000064697E7022000F0ADFADDE7012000F03E
:107AF000A9FAD9E7002000F0A5FAD5E700F0A8FA26
:107B00002870D1E700F0AAFA2870CDE78DF80E5062
:107B10000DF10E0000F090FF06467BE700238DF884
:107B20000E300DF10E0000F0E9FF9DF80E302B70C5
:107B3000BAE700238DF80E300DF10E0001F00AF8BF
:107B400006469DF80E302B7064E78DF80E500DF14F
:107B50000E0000F015FF06465CE7012000F084FAF5
:107B6000A2E7002000F080FA9EE700F083FA287078
:107B70009AE7E8B200F096FE06464BE700238DF840
:107B80000E300DF10E0000F0CFFE06469DF80E30CF
:107B90002B703FE700910E4B0122074903201AF09A
:107BA000C9F900940B4B0122034903201AF0C2F9D2
:107BB0000EE700BF94920C00BC920C00C4920C0023
:107BC00084930C00EC920C0000930C0014930C00B6
:107BD00030930C0060930C0070B582B00446002511
:107BE0000095019542F012F90646684601F0D4FA74
:107BF00080BB9DF807300A2B13D09DF801200D2A79
:107C000016D09DF804200ABB092B21D09DF8063020
:107C10000C2B03D09DF805300B2B03D10B232370C5
:107C200000E02370A660E5600023637002B070BDC1
:107C30009DF8042052B90D2323709DF90230A380D2
:107C40009DF90330E3800123A370EBE72270E9E79D
:107C50002370E7E74FF0FF30E8E7000070B5054616
:107C600014460E4661B195F87430032B0FD1C4EB66
:107C7000C4013046FFF7B0FFB0FA80F0400970BD94
:107C800040F25912064907481AF064FCEBE7064B2C
:107C90000122064903201AF04DF94FF0FF30EEE7BC
:107CA000CC930C00743D0D00A0930C00BC920C0012
:107CB000004870471800001010B582B0044600203C
:107CC000ADF80400022201A9FEF7FCFE9DF8043085
:107CD000332B03D19DF80530012B08D0064B012230
:107CE000064903201AF026F9012002B010BD332303
:107CF00023700020F9E700BFE0930C0000940C0013
:107D00000323037043704FF47A734360836001234D
:107D1000837000207047000010B582B0322838BF51
:107D200032200446B0F5486F28BF4FF4486407EE90
:107D3000904AF8EE677A17EE900AFDF727F811A33C
:107D4000D3E90023FDF7A4F9FDF750FB8DF80700F8
:107D500001220DF107010D20FEF78AFE18B9064B2E
:107D60001C8202B010BD054B0122054903201AF008
:107D7000E1F84FF0FF30F4E71800001004940C0015
:107D800000940C00CDCCCCCCCCCC3B40000000000F
:107D900030B583B0044600238DF8073001220DF181
:107DA00007010D20FEF78EFE90B905469DF80700ED
:107DB000FCF7DAFF0FA3D3E90023FDF73FF8FDF747
:107DC00015FB83B22380084A1382284603B030BDD6
:107DD000064B0122064903201AF0ACF84FF0FF359C
:107DE000F3E700BFAFF3008018000010EC920C0026
:107DF00000940C00CDCCCCCCCCCC3B40000000009F
:107E000010B582B0322838BF32200446B0F5486F32
:107E100028BF4FF4486407EE904AF8EE677A17EEF1
:107E2000900AFCF7B3FF11A3D3E90023FDF730F963
:107E3000FDF7DCFA8DF8070001220DF107010E2095
:107E4000FEF716FE18B9064B5C8202B010BD054B5A
:107E50000122054903201AF06DF84FF0FF30F4E7D6
:107E60001800001018940C0000940C00CDCCCCCC61
:107E7000CCCC3B400000000030B583B0044600236A
:107E80008DF8073001220DF107010E20FEF71AFED2
:107E900090B905469DF80700FCF766FF0FA3D3E9EC
:107EA0000023FCF7CBFFFDF7A1FA83B22380084A39
:107EB0005382284603B030BD064B012206490320F9
:107EC0001AF038F84FF0FF35F3E700BFAFF300804A
:107ED0001800001000930C0000940C00CDCCCCCC0A
:107EE000CCCC3B4030B585B0044601280CBFDF2325
:107EF000FE238DF80F3001220DF10F011220FEF745
:107F0000B7FD70B905460C4B9C729DF80F3000937D
:107F10000A4B01220A4907201AF00CF8284605B03E
:107F200030BD0094074B0122054903201AF002F8E6
:107F30004FF0FF35F2E700BF1800001048940C0026
:107F400000940C002C940C0010B584B071238DF8B3
:107F50000F3001220DF10F011320FEF789FDF0B95A
:107F6000044600238DF80F3001220DF10F0113207C
:107F7000FEF7A8FD9DF80F3000930F4B01220F492B
:107F8000072019F0D7FF9DF80F3013F0060F14BF2C
:107F9000102208220A4BDA72204604B010BD9DF868
:107FA0000F300093074B01220449032019F0C2FF50
:107FB0004FF0FF34F0E700BF8C940C0000940C00ED
:107FC0001800001064940C0008B50A4B186C38B106
:107FD0001BF01AF9074A137A01331372002008BD07
:107FE000054B01220549032019F0A4FF4FF0FF3093
:107FF000F5E700BF18000010B8940C0000940C00C6
:1080000008B50A4B186C38B11BF038F9074A137AD7
:10801000013B1372002008BD054B012205490320D6
:1080200019F088FF4FF0FF30F5E700BF180000108F
:10803000D0940C0000940C00014B93F90800704799
:1080400018000010014B9873704700BF1800001013
:10805000014B987B704700BF18000010014BD87A85
:10806000704700BF18000010014B1873704700BF25
:1080700018000010014B187B704700BF180000105B
:1080800010B582B0044600238DF8073001220DF1AF
:1080900007010220FEF716FD20B99DF80730237076
:1080A00002B010BD044B01220449032019F042FF25
:1080B0004FF0FF30F4E700BFE8940C0000940C0090
:1080C00070B584B000238DF80F30552025F06CF981
:1080D000012808BF00244CD001220DF10F0102201D
:1080E000FEF7F0FC41F0A8FE810F830018184FF452
:1080F0007A724FF0000341F10001FDF745FB42F0B9
:1081000051F8552025F050F9012426460225012872
:108110002FD032460DF10F012846FEF7D3FC41F077
:108120008BFE810F830018184FF47A724FF0000312
:1081300041F10001FDF728FB42F034F8552025F00D
:1081400033F90134C82CE2D1104C9DF80F30019363
:10815000C82300930E4B01222146072019F0EAFEA6
:108160000C4B01222146032019F0E4FE4FF0FF30B2
:108170000AE09DF80F3001930094054B012203495A
:10818000072019F0D7FE002004B070BD00940C0049
:1081900004950C0020950C0030B583B004460023F4
:1081A0008DF8073001220DF107011120FEF78AFC3E
:1081B00005469DF8073023F01F03E4B20C48A0FBEE
:1081C000042443EA94048DF8074001220DF10701CD
:1081D0001120FEF74DFC281801D103B030BD054B2E
:1081E00001220549032019F0A5FE4FF0FF30F4E706
:1081F000CDCCCCCC38950C0000940C0030B583B0BD
:10820000044600238DF8073001220DF107011220EA
:10821000FEF758FC05469DF8073023F07F03E4B2D3
:108220000C48A0FB042443EA94048DF80740012283
:108230000DF107011220FEF71BFC281801D103B035
:1082400030BD054B01220549032019F073FE4FF0A4
:10825000FF30F4E7CDCCCCCC58950C0000940C004A
:1082600000B583B00C4BA3FB003080088DF80700ED
:1082700001220DF107011320FEF7FAFB10B903B03C
:108280005DF804FB054B01220549032019F052FE5D
:108290004FF0FF30F3E700BFCDCCCCCC78950C008D
:1082A00000940C0000B583B00C4BA3FB0030800899
:1082B0008DF8070001220DF107011420FEF7D8FB0D
:1082C00010B903B05DF804FB054B012205490320FA
:1082D00019F030FE4FF0FF30F3E700BFCDCCCCCC2F
:1082E00090950C0000940C0010B582B00446002359
:1082F0008DF8073001220DF107017320FEF7E2FB34
:1083000098B99DF8073003F03F03234323F0070398
:1083100043F004038DF8073001220DF107017320AB
:10832000FEF7A6FB50B902B010BD094B0122094966
:10833000032019F0FFFD4FF0FF30F4E7064B012258
:108340000449032019F0F6FD4FF0FF30EBE700BFC2
:10835000A8950C0000940C00C8950C0010B582B0D4
:10836000044600238DF8073001220DF107010C208F
:10837000FEF7A8FB78B99DF8070020F038002043ED
:108380008DF8070001220DF107010C20FEF770FBAC
:1083900050B902B010BD094B01220949032019F060
:1083A000C9FD4FF0FF30F4E7064B012204490320DA
:1083B00019F0C0FD4FF0FF30EBE700BFE8950C006F
:1083C00000940C0004960C0000B583B001280CBF8B
:1083D000152312238DF8073001220DF107011E200D
:1083E000FEF746FB10B903B05DF804FB044B012215
:1083F0000449032019F09EFD4FF0FF30F3E700BF62
:1084000020960C0000940C0000B583B090238DF8EA
:10841000073001220DF107010A20FEF729FB10B9F0
:1084200003B05DF804FB044B01220449032019F05A
:1084300081FD4FF0FF30F3E740960C0000940C00F4
:1084400000B583B08DF8070001220DF107017F20F0
:10845000FEF70EFB10B903B05DF804FB044B0122DC
:108460000449032019F066FD4FF0FF30F3E700BF29
:1084700054960C0000940C0000B583B001280CBF8A
:1084800000235A238DF8073001220DF1070109203E
:10849000FEF7EEFA10B903B05DF804FB044B0122BD
:1084A0000449032019F046FD4FF0FF30F3E700BF09
:1084B0006C960C0000940C0030B583B00546002388
:1084C0008DF8073001220DF107015520FEF7FAFA69
:1084D00004469DF8073003F0CF038DF807303DB117
:1084E000012D0FD0022D04BF43F030038DF807306B
:1084F00001220DF107015520FEF7BAFA201806D126
:1085000003B030BD43F020038DF80730F0E7044B93
:1085100001220449032019F00DFD4FF0FF30EFE771
:1085200084960C0000940C0070B584B004460023BF
:108530008DF80F3001220DF10F015D20FEF7C2FA18
:1085400005461C4E9DF80F3000931B4B012231460F
:10855000072019F0EFFC9DF80F3003F0F002B4F59E
:10856000806F28BF4FF48064402C38BF40241349EB
:108570004C62A309013B1343DBB28DF80F3000932B
:108580000F4B01223146072019F0D4FC01220DF1D6
:108590000F015D20FEF76CFA281801D104B070BD00
:1085A000084B01223146032019F0C4FC4FF0FF3084
:1085B000F4E700BF00940C00A8960C00180000100F
:1085C000E0960C0018970C0070B584B004460023A8
:1085D0008DF80F3001220DF10F015C20FEF772FAC9
:1085E00005461B4E9DF80F3000931A4B0122314671
:1085F000072019F09FFC9DF80F3003F00F02402C6C
:1086000028BF4024042C38BF042413498C62A308DB
:10861000013B42EA0313DBB28DF80F3000930F4B9E
:1086200001223146072019F085FC01220DF10F01CE
:108630005C20FEF71DFA281801D104B070BD084B6C
:1086400001223146032019F075FC4FF0FF30F4E7AA
:1086500000940C0030970C001800001064970C0078
:1086600098970C0070B584B0044600238DF80F3045
:1086700001220DF10F015E20FEF724FA05461D4E82
:108680009DF80F3000931C4B01223146072019F052
:1086900051FC9DF80F3003F0E002B4F5004F28BF05
:1086A0004FF40044B4F5806F38BF4FF48064134931
:1086B000CC62A30A013B1343DBB28DF80F30009369
:1086C0000F4B01223146072019F034FC01220DF135
:1086D0000F015E20FEF7CCF9281801D104B070BD5F
:1086E000084B01223146032019F024FC4FF0FF30E3
:1086F000F4E700BF00940C00B0970C0018000010C5
:10870000E8970C0020980C0070B584B00446002354
:108710008DF80F3001220DF10F015C20FEF7D2F928
:1087200005461C4E9DF80F3000931B4B012231462D
:10873000072019F0FFFB9DF80F3003F0F002B4F5AD
:10874000807F28BF4FF48074102C38BF1024134949
:108750000C632309013B1343DBB28DF80F30009308
:108760000F4B01223146072019F0E4FB01220DF1E5
:108770000F015C20FEF77CF9281801D104B070BD10
:10878000084B01223146032019F0D4FB4FF0FF3093
:10879000F4E700BF00940C0038980C00180000109B
:1087A0006C980C00A0980C0084B038B504AC84E838
:1087B0000F000D46FFF7B8FE04462846FFF704FFFA
:1087C0000444079D0698FFF74DFF04442846FFF731
:1087D0009BFF201803D1BDE8384004B07047044B1C
:1087E00001220449032019F0A5FB4FF0FF30F2E706
:1087F000B8980C0000940C0000B58DB000230B93CA
:10880000114B5A6A05929A6A0692DA6A07921A6BB3
:1088100008925A6B09929B6B0A930CAB13E9070001
:108820008DE8070005AB0FCBFFF7BEFF10B90DB009
:108830005DF804FB054B01220549032019F07AFB82
:108840004FF0FF30F3E700BF18000010D0980C0085
:1088500000940C0030B583B0054600208DF8070069
:10886000FFF7EEFD044601220DF107015320FEF74C
:1088700029F99DF8073003F00F038DF80730201811
:1088800008BF2B7001D103B030BD044B0122044955
:10889000032019F04FFB4FF0FF30F4E7F0980C0085
:1088A00000940C0030B583B0054600208DF8070019
:1088B000FFF7C6FD044601220DF107010B20FEF76C
:1088C00001F90444A5B99DF8073023F0300343F0C3
:1088D00020038DF80730114B00225A7201220DF14E
:1088E00007010B20FEF7C4F820180DD103B030BDEE
:1088F000012DF3D19DF8073023F030038DF80730B8
:10890000064B01225A72E9E7054B01220549032073
:1089100019F010FB4FF0FF30E8E700BF180000101F
:10892000B8980C0000940C0010B582B004460023E7
:108930008DF807300DF10700FFF78CFF9DF8072039
:10894000931FDBB2022B06D80A4BDA630023237095
:1089500038B902B010BD074B0322DA63012323703C
:10896000F6E7054B01220549032019F0E3FA4FF021
:10897000FF30EEE718000010F0980C0000940C0097
:1089800030B585B000238DF80F3004783F2C2BD8FC
:1089900001220DF10F017820FEF794F8054660BB27
:1089A00001949DF80F3003F03F0300931C4B01220C
:1089B0001C49072019F0BEFA1B4B5C739DF80F3061
:1089C00003F03F0294420CD023F03F031C438DF888
:1089D0000F4001220DF10F017820FEF749F80546FE
:1089E000A0B9284605B030BD104B01220D49032027
:1089F00019F0A0FA4FF0FF35F3E70D4B01220949BA
:108A0000032019F097FA4FF0FF35EAE7094B0122EE
:108A10000449032019F08EFA4FF0FF35E1E700BF5B
:108A20004C990C0000940C001800001008990C00E0
:108A300034990C0078990C0000B58BB08446274A15
:108A400092E8030006908DF81C100023CDF81D302D
:108A5000CDF82130099302908DF80C10CDF80D302F
:108A6000CDF8113005939CF800308DF81830009344
:108A70001B4B01221B49072019F05CFA06AB1022A0
:108A800019491A482DF000FDB0B9102302AA164961
:108A900016482DF08FFD9DF808309DF818209A4259
:108AA00013D10093124B01220E49072019F042FA0C
:108AB00000200BB05DF804FB0E4B01220949032096
:108AC00019F038FA4FF0FF30F3E70B4B012205495C
:108AD000032019F02FFA4FF0FF30EAE7C0570C00DF
:108AE00090990C0000940C00B4990C00C4990C00EF
:108AF000009A0C00CC990C00E8990C0030B587B0B6
:108B000005460F4B93E8030002908DF80C100024EB
:108B1000CDF80D40CDF811400594102302AA094963
:108B200009482DF047FD9DF808302B700093074B46
:108B300001220749072019F0FDF9204607B030BD92
:108B4000C0570C00B4990C00C4990C00249A0C0076
:108B500000940C002DE9F04F87B0039000258DF8AC
:108B6000175001220DF117017F20FDF781FF044608
:108B70005A278DF8177001220DF117010920FDF712
:108B800077FF044490238DF8173001220DF117016F
:108B90000A20FDF76DFF044441F04EF9031845EB40
:108BA00005011B1841F10001C90041EA5371DB00C6
:108BB00018184FF47A724FF0000341F10001FCF7EE
:108BC000E3FD41F0EFFA80238DF8173001220DF11B
:108BD00017011420FDF74CFF044441F02DF9001853
:108BE00045EB05014FF47A720023FCF7CDFD41F00F
:108BF000D9FA01268DF8176032460DF117017F2052
:108C0000FDF736FF04EB0008FF238DF817303246DE
:108C10000DF117015920FDF72BFF80448DF81750F7
:108C200032460DF117017F20FDF722FF80443023EB
:108C30008DF8173032460DF117013846FDF718FF51
:108C400080448DF8175032460DF117016020FDF772
:108C50000FFF804485238DF8173032460DF1170140
:108C60007C20FDF705FF804408238DF8173032463D
:108C70000DF117017D20FDF7FBFE804402238DF8E6
:108C8000173032460DF117017F20FDF7F1FE8044C9
:108C900043238DF8173032460DF117013E20FDF7C2
:108CA000E7FE80448DF8175032460DF117017F2002
:108CB000FDF7DEFE80448DF8165040274FF47A7A97
:108CC0004FF0000B454632460DF117010220FDF72B
:108CD000F9FE054441F0B0F84FF00009001849EBE7
:108CE000090152465B46FCF74FFD41F05BFA324604
:108CF0000DF116017820FDF7E5FE05449DF81640BC
:108D000004F03F04DFF8A0810094644B32464146F2
:108D1000072019F00FF941F08FF8001849EB09010D
:108D200052465B46FCF730FD41F03CFA8DF8179057
:108D300032460DF117010820FDF7C4FE05449DF8E9
:108D400017300093564B32464146072019F0F2F88F
:108D50009DF8172002F17B03DBB20E2B2CD9842A5D
:108D60009DF8163023F03F0394BF013404F1FF3423
:108D700004F03F041C438DF8164032460DF11601F5
:108D80007820FDF775FE054441F056F800210018E3
:108D9000494152465B46FCF7F7FC41F003FA013FBC
:108DA00017F0FF078FD13F4B01223F49032019F0F5
:108DB000C1F84FF0FF3459E0039B1C7000923B4B0D
:108DC00001223949032019F0B5F8394B5C73002DA5
:108DD000E9D100248DF8174001220DF117017F2001
:108DE000FDF746FE5A238DF8173001220DF11701C9
:108DF0000920FDF73DFE90238DF8173001220DF17B
:108E000017010A20FDF734FE41F016F8031844EB71
:108E100004011B1841F100014A0142EAD3625D01DD
:108E20005B1941EB020118184FF47A724FF00003FE
:108E300041F10001FCF7A8FC41F0B4F98DF81740AE
:108E400001220DF117010820FDF73CFE044688B908
:108E50009DF81720A2F17803DBB2282B13D80092DB
:108E6000144B01221049032019F064F8204607B082
:108E7000BDE8F08F104B01220B49032019F05AF87E
:108E80004FF0FF34F2E700920C4B01220649032019
:108E900019F050F84FF0FF34E8E700BF489A0C0093
:108EA000609A0C00989A0C0000940C00749A0C00C4
:108EB00018000010CC9A0C00AC9A0C00009B0C001F
:108EC00070B582B000238DF807300DF10700FEF772
:108ED000F3FE002840F00F819DF80730332B40F05F
:108EE0000A810020FFF7ACFA0446FFF78DFA40F044
:108EF000A3FF0025031845EB05011B1841F10001F4
:108F0000C90041EA5371DB0018184FF47A724FF030
:108F1000000341F10001FCF737FC41F043F98DF803
:108F2000075001220DF107010220FDF7CBFD04449B
:108F30009DF8073013F0010F40F0E68000258DF812
:108F4000075001220DF107017F20FDF791FD044438
:108F50002846FFF791FA04444FF47A70FEF7DCFEDE
:108F600004444FF47A70FEF74BFF04442846FEF7A2
:108F7000B9FF0444FEF7E8FF04445F238DF807308F
:108F800001220DF107011420FDF772FD044419239D
:108F90008DF8073001220DF107013720FDF768FD3C
:108FA00004442846FFF788FA0444FFF725FC0444EC
:108FB0000120FFF745FA044412268DF807600122CC
:108FC0000DF107010820FDF753FD0444B6238DF889
:108FD000073001220DF107010A20FDF749FD044485
:108FE00040238DF8073001220DF107010D20FDF718
:108FF0003FFD04441420FFF7CFF80444FA20FFF7A4
:10900000FDF804442820FFF72BF904444FF4F070D6
:10901000FFF748F904442B238DF8073001220DF1A6
:1090200007011720FDF724FD0444F3238DF80730D2
:1090300001220DF107011B20FDF71AFD0444102346
:109040008DF8073001220DF107012020FDF710FDFA
:10905000044404238DF8073001220DF10701452057
:10906000FDF706FD0444C020FFF73EF9044402204A
:10907000FFF7E6F904448DF8076001220DF10701BE
:109080004220FDF7F5FC04449C238DF807300122B3
:109090000DF107014520FDF7EBFC044408238DF892
:1090A000073001220DF107014720FDF7E1FC0444E0
:1090B0000320FFF7C5F904442846FFF785F9044467
:1090C00003238DF8073001220DF107012220FDF75F
:1090D000CFFC0444FF238DF8073001220DF1070176
:1090E0002320FDF7C5FC04442846FFF7A9F9201802
:1090F00011D102B070BD0C4B01220C49032018F0B5
:1091000019FF4FF0FF30F4E7094B01220749072010
:1091100018F010FF12E7074B01220449032018F052
:1091200009FF4FF0FF30E4E7249B0C0000940C0093
:10913000389B0C00589B0C0008B50021552024F0EA
:10914000E1F8FEF75DFF002008BD000010B50C46F9
:10915000012201460020FDF7B5FC38B90122214665
:109160001420FDF7AFFC48B9002010BD074B0122C9
:109170000749032018F0DEFE0220F6E7054B012226
:109180000349032018F0D6FE0120EEE7689B0C008F
:1091900000940C008C9B0C0070B584B00446002336
:1091A0000293ADF80C308DF80E308DF807308DF845
:1091B00006300DF106010DF10700FFF7C7FF00288B
:1091C0003ED040F039FE0021031849411B1841F1FF
:1091D0000001D8184FF47A724FF000034941FCF7B0
:1091E000D3FA40F0DFFF9DF80730332B03D19DF811
:1091F00006305F2B24D0FFF79FFFFEF7E5FE40F01F
:109200001BFE0021031849411B1841F10001C90050
:1092100041EA5371DB0018184FF47A724FF00003E3
:1092200041F10001FCF7B0FA40F0BCFFFFF748FE47
:1092300058BB0120FEF756FE0121552024F062F8AC
:1092400001220DF10A010220FDF73CFC064628BB75
:109250009DF80A505DB315F0800F7ED115F0320FE6
:1092600010D0257015F0400F29D115F0200F1CBF2C
:109270000B23637115F0100F1CBF0C23A37115F0A5
:10928000020F54D1304604B070BD3B4B01223B4924
:10929000032018F04FFE4FF0FF36F3E7384B012262
:1092A0003649032018F046FE4FF0FF36EAE7354B0B
:1092B00001223249062018F03DFE0126E2E7012294
:1092C0000DF10D010520FDF7FDFB9DF80D3013F0AC
:1092D000F00FCAD013F0100F1CBF0122227113F03F
:1092E000200F1CBF0222227103F03002302A04BF7B
:1092F0000322227113F0400F1CBF0422227103F0DD
:109300005002502A04BF0522227103F06002602A35
:1093100004BF0622227103F07002702A04BF0722E4
:10932000227113F0800F1CBF082323719DE70122D7
:109330000DF10E010620FDF7C5FB9DF80E3013F070
:10934000030F9FD013F0010F1CBF0922E27113F02D
:10935000020F97D00A23E37194E7257002220DF1E2
:109360000B010320FDF7AEFB9DF80B30A3709DF8B9
:109370000C30E37076E700BFB09B0C0000940C004B
:10938000D09B0C00F49B0C0000B583B0002200239E
:10939000CDE90023684602F039FD044A0023DDE9E7
:1093A0000001FCF7F1F903B05DF804FB40420F0047
:1093B000F8B507460D4614461E46FFF7E5FF23683D
:1093C0000BB92060E36031462046A847022803D04D
:1093D00003280BD00020F8BD3B68069A9342F9D0D1
:1093E0003A60002323606368A360F3E73B68079A51
:1093F0009342EFD03A60002323606368A360E9E7FB
:10940000F8B5044617461E46058805F478750544E8
:1094100085ED0E0AC5ED0F0A85ED101A20EE000A43
:1094200060EEA00A30EE200A21EE011A30EE010AA9
:10943000B5EE400AF1EE10FA17D4F1EEC07AC5EDA0
:10944000117A2188C1F3441301F4787121440F6526
:109450004E650133228863F349122280A3880133C9
:109460009BB2202B06D8A3800BE096F08FF9F0EE8C
:10947000407AE4E72023A38023785A1C62F3040394
:109480002370F8BDF8B5044617461E460568C5F3B7
:10949000C43500EB451505F5876383ED000A05F239
:1094A0003C43C3ED000A05F5886383ED001A20EE06
:1094B000000A60EEA00A30EE200A21EE011A30EE1A
:1094C000010AB5EE400AF1EE10FA1AD4F1EEC07AB4
:1094D00005F24445C5ED007A2168C1F3C43104EBBF
:1094E0004113C3F85074C3F854640131236861F325
:1094F000D3332360E38801339BB2202B06D8E3806B
:109500000DE096F043F9F0EE407AE1E72023E380A6
:109510006378C3F38402013262F386036370F8BD9B
:1095200010B502460B46044C2046FFF769FF204663
:1095300000F000FA10BD00BF6000001010B5024638
:109540000B46044C2046FFF79DFF204600F063FACF
:1095500010BD00BF6000001008B500F07DFC08BD24
:1095600008B5024800F040FD08BD00BF60000010D3
:1095700002207047022070470220704708B5064B52
:10958000DB6E0133C360054B01220549042018F04E
:10959000D1FC022008BD00BF087500100C9C0C0017
:1095A0003C9C0C0010B50446FFF7EEFE2060022044
:1095B00010BD000038B504460D46FFF7E5FE95EDF9
:1095C000097ADFED087AB4EEE77AF1EE10FA07DCFB
:1095D0002368C01A6368984294BF0120022038BDF6
:1095E0000320FCE70000484591ED097ADFED0F7A92
:1095F000B4EEE77AF1EE10FA01DC032070470B7845
:1096000003F01F0301EB43118A6C094B4FF4967171
:1096100059800849D9601A6100221A709A801A810B
:109620005A810A22DA800220704700BF00C05A45E2
:10963000E07500100000FA448A0102F118030344A7
:1096400000F1080C944453F8042D5A605A699A6149
:109650009A6ADA626345F6D100EB811282ED020A62
:10966000C2ED070A82ED0C1A13790133DBB2052B28
:1096700088BF0523137170478A0102F10803034470
:1096800000F11C0C9444002243F8042B1A615A6226
:109690006345F9D100EB811000230371704700008E
:1096A00010B52DED068B84B00446F0EE408AB0EE86
:1096B000609AF0EE419A037923B990F84430002B78
:1096C00000F0D48094F800C0BCFA8CF0400904EBA0
:1096D0008C131979002900F0CD8008334A1ED2B2CC
:1096E00002EB0C1C04F10C0202EB8C02DFED847A1D
:1096F000B0EE677AF0EE676AB3EC016A76EE866ADE
:1097000093ED046A37EE067A93ED096A77EE867A6E
:109710009342F1D106EE101AB8EEC66A86EE868A3A
:1097200028EE288AC7EE066A26EE897A38EE078A7E
:1097300087EE867A67EE297A38EE278A04EB801363
:109740001A79002A00F09D800833511E000150FA5A
:1097500081F104F10C0000EB8100DFED697AB0EEDD
:10976000677AF0EE676AB3EC016A76EE866A93ED8B
:10977000046A37EE067A93ED096A77EE867A8342B9
:10978000F1D106EE102AB8EEC66A86EE86AA2AEE57
:1097900028AAC7EE066A26EE897A3AEE07AA87EE6D
:1097A000867A67EE297A3AEE27AA564B0122564965
:1097B000042018F0BFFBDFED557AB4EEE78AF1EE36
:1097C00010FA61DD524B01224F49042018F0B2FB20
:1097D000B0EE691AF0EE490AB0EE680A2178204628
:1097E000FFF72AFF2178B1FA81F149092046FFF7F6
:1097F00043FFB4EEC8AAF1EE10FA59DD63780133E5
:10980000DBB263700093434B01223F49042018F000
:1098100091FB6378022B55D8B5EEC08AF1EE10FAB1
:1098200065D43D4BBDEEC87AB5EEC08AF1EE10FAB4
:10983000F8EEC77ACCBF78EE677A77EEC87ADFEDBC
:10984000376A67EEA67AFDEEE77ACDED027A8DED06
:10985000017A0093324B01222B49042018F06AFB55
:10986000B0EE480A04B0BDEC068B10BD0178FFF7DE
:10987000E3FE27E7DFED227AB0EE677AF0EE676A63
:1098800048E79FED1FAA90E7264B01221E490420BE
:1098900018F050FB2178B0EE691AF0EE490AB0EEEC
:1098A000680AB1FA81F149092046FFF7C5FEA0E731
:1098B0000023637000931C4B01221349042018F00D
:1098C00039FBA6E7194B01220F49042018F032FB9F
:1098D0002378002B0CBF01230023237014BF012128
:1098E00000212046FFF7C8FEB0EE4A8A94E7FFEE5B
:1098F000007AB4EEE78AF1EE10FA92DD0C4B91E7B4
:1099000000000000489C0C003C9C0C006666663F12
:10991000509C0C00809C0C0060EB0E0000247449ED
:10992000B89C0C00689C0C00949C0C00A89C0C003B
:109930006CED0D0000B543891E2B35D8027A02F07C
:109940001F02B0F800C0CCF3441C624558D0D0EDE3
:10995000047A01339BB200EB421191ED117A77EE5C
:10996000877A1FFA83FE07EE103AF8EEC76A87EE91
:10997000A67A81ED127A013202F01F02624541D0CF
:109980000133591E89B21E29E5D9C0ED047A037A44
:1099900062F304030372A0F80AE003F01F03B0F8B7
:1099A00000C0CCF3441C08E0037A03F01F03B0F8B6
:1099B00000C0CCF3441C634522D0D0ED047AF3EE12
:1099C0000F6A5A1C02F01F0200EB421191ED117A4E
:1099D00077EEC77A00EB431191ED117A77EE877A33
:1099E00087EEA67A81ED127A13466245E9D10389A2
:1099F00062F349130381C0ED047A6CF3040303722C
:109A00005DF804FBC0ED047A037A6CF3040303727F
:109A1000A0F80AE0F4E700B5C38A1E2B39D8027D0E
:109A200002F01F020168C1F3C43C624564D0D0ED6E
:109A3000077A01339BB202F1220100EB411191ED53
:109A4000017A77EE877A1FFA83FE00EB421101F567
:109A5000896107EE103AF8EEC76A87EEA67A81EDC3
:109A6000007A013202F01F02624547D00133591ECD
:109A700089B21E29DFD9C0ED077A037D62F30403A2
:109A80000375A0F816E003F01F030268C2F3C43C9C
:109A900007E0037D03F01F030268C2F3C43C634583
:109AA0002AD0D0ED077AF3EE0F6A5A1C02F01F029B
:109AB00002F1220100EB411191ED017A77EEC77AB4
:109AC00003F1220100EB411191ED017A77EE877AE3
:109AD00000EB431303F5896387EEA67A83ED007AE2
:109AE00013466245E1D1838A62F349138382C0ED54
:109AF000077A6CF3040303755DF804FBC0ED077A85
:109B0000037D6CF304030375A0F816E0F4E700008E
:109B100000B54278C2F38402531C03F01F0300EB2C
:109B2000421101F58961D1ED007AB6EE007AF4EECA
:109B3000C77AF1EE10FA08DD90ED087AF4EEC77AF4
:109B4000F1EE10FA48BFC0ED087A02F11F0E0EF0D8
:109B50001F0E9FED337A03F1220C00EB4C1C02F137
:109B6000220100EB4111DCED017AD1ED016A77EEC3
:109B7000E67AF0EEE77A37EE277A013303F01F0337
:109B8000013202F01F029E45E5D1437D6EF386034C
:109B90004375838A62F34913838280ED097ADFED8E
:109BA000217AB4EEE77AF1EE10FA0EDDD0ED0B7A01
:109BB000F4EEC77AF1EE10FA07DD77EE877AF6EE6B
:109BC000006A67EEA67AC0ED0B7AD0ED0B7A90EDC5
:109BD0000A6A77EE676AF0EEE66AC7EE865AF4EE36
:109BE000E56AF1EE10FA0DD577EE877AB6EE007AD7
:109BF00067EE877AC0ED0B7A4FF0824383620020D4
:109C00005DF804FBF0EE007AB4EEE76AF1EE10FACC
:109C1000F5DDD0ED0C7A36EE676A80ED0A6AEEE784
:109C200000000000CDCCCC3DD0ED066AC0ED076A47
:109C300090ED057A80ED067A80ED050A8388013380
:109C40009BB28380012B41D942889A4240D3D0ED08
:109C5000047A77EE677AF0EEE77A90ED036AF4EE35
:109C6000C67AF1EE10FA35D4F4EEC76AF1EE10FAC6
:109C700004D5B4EEC07AF1EE10FA0BDCF4EEC76A4C
:109C8000F1EE10FA28DDB4EEC07AF1EE10FA0FD43E
:109C90000020704780ED087A03810378012B03D9F7
:109CA000072303700320704703230370184670478F
:109CB00080ED097A43810378012B03D907230370D0
:109CC0000420704704230370184670470020704733
:109CD000092070470020704700207047F8B52DED2F
:109CE000048B06460C46FFF74FFB07462378C3F369
:109CF0000403228963F3491222812579002D00F0A3
:109D00008880DFED4D8A9FED4D8A9FED4D9A28E0CA
:109D100073689B00B3604B4B1B78012B10D04A4BF0
:109D2000D3ED087AF4EEC87AF1EE10FA0DDDF4EE18
:109D3000C97AF1EE10FA08D5444B01221A7004E0FA
:109D40000023424A13703F4A1370A388013BA3804B
:109D500023785A1C62F304032370013D15F0FF05BC
:109D600057D0237803F01F0304EB431393ED120A3B
:109D70003548FFF759FF0328CAD00428E5D1736896
:109D80009B00B3602F4B01221A70304B1B7893421B
:109D9000DBD12E4B00221A702B4BD3ED097AF4EE57
:109DA000E87AF1EE10FAD0D5237803F01F0304EB24
:109DB000431292ED0E8AD2ED0F8A92ED109A28EEA0
:109DC000080A68EEA87A30EE270A69EE097A30EEC2
:109DD000270AB5EE400AF1EE10FA15D4F1EEC07A7A
:109DE00089EE271AC8EEA70A88EE270A1848FFF757
:109DF00057FCDFED187AB4EEE70AF1EE10FA18DD41
:109E00000123F36002200AE095F0C0FCF0EE407AF6
:109E1000E6E73368FF1AB3689F4203D80120BDEC20
:109E2000048BF8BD0023094A1370064A13700320FF
:109E3000F5E70220F3E700BF00C0DA4500A00C46BA
:109E400000409C4609760010E07500100A7600106C
:109E50007C7400106666663F094B14225A63C82260
:109E60005A66084A1A67084A5A674FF49672DA67C0
:109E7000064AC3F88820064AC3F88C20704700BF02
:109E80000875001000007A4600E02B4600C0DA4555
:109E900000409C4510B50446FFF776FA2060FFF7B6
:109EA000DBFF022010BD000010B582B00B46026837
:109EB000082A6CD8DFE802F005111C27323D485310
:109EC0005E000024019401220092324A3249334854
:109ED000FFF76EFA204602B010BD01220192022265
:109EE00000922F4A2F492D48FFF762FA0020F2E72F
:109EF00001220192032200922B4A2C492748FFF7A6
:109F000057FA0020E7E70322019204220092284A30
:109F100028492248FFF74CFA0020DCE70122019291
:109F200008220092244A25491C48FFF741FA0020E4
:109F3000D1E70122019206220092214A21491748C5
:109F4000FFF736FA0020C6E70122019207220092AD
:109F50001D4A1E491148FFF72BFA0020BBE70122DA
:109F60000192082200921A4A1A490C48FFF720FA77
:109F70000020B0E7074C01220192009204F1C002D8
:109F800015490648FFF714FA94F8CC00A3E700201F
:109F9000A1E700BF08750010959E02000075001033
:109FA00020750010A595020038750010B5950200C7
:109FB00050750010E995020068750010DD9C0200E4
:109FC000807500107195020098750010759502005B
:109FD000B0750010799502007D950200014B18784C
:109FE000704700BF0876001010B50446FFF790FDDB
:109FF00021460348FFF758FF024B187010BD00BF01
:10A00000007500100876001000207047C0BB38B5FE
:10A010000C469AB30B68B3F1011F19D019498B4252
:10A020002CD102EB820204EB0215D4E9020194ED7B
:10A03000061AD4ED050A94ED040AFFF77FFA5034AE
:10A04000A542F2D10221104B18683FF083FF15E0C2
:10A0500002EB820201EB0215D4E9020194ED061A2B
:10A06000D4ED050A94ED040AFFF75AFA5034AC42D5
:10A07000F2D10121044B18683FF06CFF002038BD7D
:10A0800000207047020001001076001008B5054B53
:10A0900001220549062017F04DFF0020034B1860F0
:10A0A00008BD00BFCC9C0C00EC9C0C000C76001092
:10A0B00030B583B00A4D4B682B600A4C0A4B012225
:10A0C0002146062017F036FF2B680093074B01222C
:10A0D0002146062017F02EFF002003B030BD00BF40
:10A0E0000C760010EC9C0C00FC9C0C00209D0C00DD
:10A0F00000282ED0F0B583B00446164E164B012230
:10A100003146062017F016FF0023637001252571E4
:10A110006571E2681370E3680D225A70E3689D7000
:10A12000E3685B680D4A1A60E3685F68FFF756FFF3
:10A130003874E3685B6883F84850E3685B681B7CAD
:10A140000093074B2A463146062017F0F3FE03B072
:10A15000F0BD7047EC9C0C00449D0C001600010003
:10A16000689D0C0000B58BB0E1B1144B012214497D
:10A17000062017F0DFFE2022002102A899F0C8FF78
:10A18000104B0193042307934FF40063069301AA35
:10A1900000210D483FF054FE0C4B186000200BB01E
:10A1A0005DF804FB0A4B01220549062017F0C2FEA8
:10A1B000064B18683FF0A6FEF0E700BF8C9D0C0030
:10A1C000EC9C0C00B09D0C00D5A102001076001094
:10A1D000C09D0C0080B5FFF7BFF9124B0122124958
:10A1E000062017F0A7FEDFF84890DFF83C800F4FFD
:10A1F00001244FF0FF3603253246214628463FF022
:10A2000061FFFFF7ADF90028F6D04B4622464146E4
:10A21000042017F08FFE3B68002BEAD009209847F6
:10A22000E6E700BFE49D0C00EC9C0C000C760010EF
:10A23000049E0C004A68024B1A600020704700BF61
:10A24000147600100020014B18607047147600103F
:10A2500000207047C0BB38B50C469AB30B68B3F109
:10A26000011F19D019498B422CD102EB820204EB59
:10A270000215D4E9020194ED061AD4ED050A94ED15
:10A28000040A00F0DDFB5034A542F2D10221104B4C
:10A2900018683FF05FFE15E002EB820201EB021549
:10A2A000D4E9020194ED061AD4ED050A94ED040AEE
:10A2B00000F06CFB5034AC42F2D10121044B186821
:10A2C0003FF048FE002038BD00207047020001002A
:10A2D0001876001010B59AB00023179318931993AD
