:020000021000EC
:10800000002B0010F1E50100E9E50100EBE50100BE
:10801000EBE50100EBE50100EBE5010000000000ED
:10802000000000000000000000000000EDE501007D
:10803000EDE5010000000000EDE50100EDE50100C7
:10804000EDE50100EDE50100EDE50100EDE50100E4
:10805000EDE50100EDE50100EDE50100EDE50100D4
:10806000EDE50100EDE50100EDE50100EDE50100C4
:10807000EDE50100EDE50100EDE50100EDE50100B4
:10808000EDE50100EDE50100EDE50100EDE50100A4
:1080900045870100EDE50100EDE50100EDE501009A
:1080A000EDE50100EDE50100EDE50100EDE5010084
:1080B000EDE50100EDE50100EDE50100EDE5010074
:1080C000EDE50100EDE50100EDE50100EDE5010064
:1080D000EDE50100EDE50100EDE50100EDE5010054
:1080E000EDE50100EDE50100EDE50100EDE5010044
:1080F000EDE50100EDE50100EDE50100EDE5010034
:10810000EDE50100EDE50100EDE50100EDE5010023
:10811000EDE50100EDE50100EDE50100EDE5010013
:10812000EDE50100EDE50100EDE50100EDE5010003
:10813000EDE50100EDE50100EDE50100EDE50100F3
:10814000EDE50100EDE50100EDE50100EDE50100E3
:10815000EDE50100EDE50100EDE50100EDE50100D3
:10816000EDE50100EDE50100EDE50100EDE50100C3
:10817000EDE50100EDE50100EDE50100EDE50100B3
:10818000EDE50100EDE50100EDE50100EDE50100A3
:1081900000000000000000000000000000000000DF
:1081A00000000000000000000000000000000000CF
:1081B00000000000000000000000000000000000BF
:1081C00000000000000000000000000000000000AF
:1081D000000000000000000000000000000000009F
:1081E000000000000000000000000000000000008F
:1081F000000000000000000000000000000000007F
:1082000010F8012B11F8013B012A28BF9A42F7D040
:10821000D01A7047034613F8012B002AFBD1181A15
:10822000013870474FEA4102B2F1E04324BFB3F591
:10823000001CDCF1FE5C0DD901F0004C4FEAC002DD
:108240004CEA5070B2F1004F40EB830008BF20F0C1
:108250000100704711F0804F21D113F13872BCBF7B
:1082600001F00040704741F480114FEA5252C2F1D0
:108270001802C2F1200C10FA0CF320FA02F018BF19
:1082800040F001004FEAC1234FEAD32303FA0CFC6C
:1082900040EA0C0023FA02F34FEA4303CCE77FEAFB
:1082A000625307D150EA01331EBF4FF0FE4040F445
:1082B0004000704701F0004040F0FE4040F40000F4
:1082C000704700BF84B008B50DF10C0C8CE80E00AF
:1082D0000268B2F1805F0ED30B9B0C990B4403F143
:1082E0008053934207D94368984204D80D9A9A4222
:1082F00001D9012005E002460449002003F0BCFC3E
:108300000020BDE8084004B0704700BF20E901002C
:1083100030B5CDB09A4803F0F3FC03F013FD3DA94E
:10832000012001F0FBFE02F071FC012002F076FC5E
:1083300001F057FC01F014F850252A46002129A825
:1083400006F0C6F90024259426942794289410A8B2
:1083500000F0A6FE2A4610A929A806F0ABF92A9A31
:108360008849204603F088FC874D2A4687492046E5
:1083700003F082FC25A9284600F094FF2FAB25AA24
:108380008349204603F078FC102225A92FA806F087
:1083900081F960BB3C9B042B49D83B9BB3F12A3F3E
:1083A00000F0BA80B3F13B3F70D12A9BB3F1FC3FA0
:1083B00040D100F009FFB0F1FF3F00F08F806C4624
:1083C00040AD0FCD0FC40FCD0FC495E80F0084E86A
:1083D0000F003DAB0ECB4FF41230FFF773FF0028B8
:1083E00070D04FF4123001F0E7FB002473E025ACAD
:1083F00022466849002003F03FFC2FAD94E80F00AF
:1084000085E80F006C460DF1B40CBCE80F000FC4FA
:10841000BCE80F000FC4BCE80F000FC49CE80F00BD
:1084200084E80F0029AB0FCB00F050FEB2E74FF00D
:108430003B333B936C4640AD0FCD0FC40FCD0FC403
:1084400095E80F0084E80F003DAB0ECB5248FFF7D4
:1084500039FF0446002853D16D460DF5807CBCE8F9
:108460000F000FC5BCE80F000FC59CE80F0085E8A2
:108470000F003DAB0ECB4FF41230FFF723FF002867
:1084800043D04FF4123001F097FB24E04FF02A3331
:108490003B936C460DF1B40CBCE80F000FC4BCE874
:1084A0000F000FC4BCE80F000FC49CE80F0084E865
:1084B0000F0029AB0FCB00F009FE2A9BB3F1FC3F64
:1084C0003FF477AF3B9BB3F12A3F2AD0B3F13B3F58
:1084D00018BF0024AED020464DB030BD2F4900203B
:1084E00003F0CAFBEEE74FF4123001F065FB002405
:1084F000F1E72B49002003F0BFFB4FF0FF34EAE720
:10850000254801F059FB0024E5E72549002003F048
:10851000B3FB4FF0FF34DEE72A9BB3F1FC3F3FF49F
:1085200048AF6C460DF5807CBCE80F000FC4BCE87A
:108530000F000FC49CE80F0084E80F003DAB0ECB8A
:108540004FF41230FFF7BEFE04460028CBD16D4633
:108550000DF5807CBCE80F000FC5BCE80F000FC50F
:108560009CE80F0085E80F003DAB0ECB0A48FFF7F3
:10857000A9FE0028BDD0084801F01EFBABE700BFF4
:10858000FCFF010044E90100D82B001060E9010064
:1085900074E90100A4E9010000101B00C8E9010012
:1085A000D8E90100012303707047000010B586B0C0
:1085B00000240194039404948DF80720029301236E
:1085C0008DF80C30ADF80E10099B0093089B0593B5
:1085D000034A6946406805F06BF906B010BD00BF5C
:1085E00040420F0010B586B0002401940394049417
:1085F000099C009401248DF806408DF80720029311
:108600008DF80C40ADF80E10089B0593034A69469F
:10861000406805F04DF906B010BD00BF40420F00A4
:1086200010B582B0044600220192009213466621E2
:10863000FFF7D8FF50B9002201920092134699210A
:108640002046FFF7CFFF30B902B010BD044802F05A
:10865000F5FF0120F8E7034802F0F0FF0120F3E7FF
:1086600000EA01002CEA010030B583B004460D4653
:10867000027C90F826309A4204D1C27C90F82930CE
:108680009A4204D004F11E01204600F0DDFC0123D3
:108690000193009500231A4605212046FFF786FF27
:1086A000227C94F826309A4204D1E27C94F8293056
:1086B0009A4204D004F10801204600F0C5FC0020D5
:1086C00003B030BD70B584B004460D46027C90F80E
:1086D00026309A4204D1C27C90F829309A4204D0C4
:1086E00004F11E01204600F0AFFC0126019603AB09
:1086F000009300231A4605212046FFF757FF0196F5
:108700000DF10D03009300231A4635212046FFF793
:108710004DFF9DF80D209DF80C3043EA02232B807D
:10872000227C94F826309A4204D1E27C94F82930D5
:108730009A4204D004F10801204600F085FC002094
:1087400004B070BD10B582B0074C002201A92068AA
:1087500005F0ACFA0199206805F0CEFA019920687D
:1087600005F0E2FA02B010BD4834001010B582B036
:10877000044600238DF807300DF10701FFF774FF61
:108780009DF8073013F0010F09D00DF107012046C5
:10879000FFF76AFF9DF8073013F0010FF5D10020B5
:1087A00002B010BD70B584B004460E46027C90F84D
:1087B00026309A4204D1C27C90F829309A4204D0E3
:1087C00004F11E01204600F03FFC0323019303AB9C
:1087D000009300231A469F212046FFF7E7FE054637
:1087E0009DF80C109DF80D301B0243EA01439DF8E3
:1087F0000E1019433160174802F020FF336823F050
:108800007F43154A934200D195B1227C94F82630DB
:108810009A4204D1E27C94F829309A4218D004F1AB
:108820000801204600F010FC0125284604B070BD68
:10883000227C94F826309A4204D1E27C94F82930C4
:108840009A42F2D004F10801204600F0FDFBECE76B
:108850000125EAE750EA01001560C800F0B589B0CB
:10886000534B5E6856B1534B93F83430002B00F0F5
:10887000C980514802F0E2FE01241CE04F4802F09A
:10888000DDFE012417E000224A4F4D4B03EBC203EB
:108890005D6807F1080428686968AA68EB680FC476
:1088A00028692060AB8AA3807378FB74B3E04548E5
:1088B00002F0C4FE0124204609B0F0BD424802F097
:1088C000BDFE0124F7E7414802F0B8FE0124F2E7BB
:1088D0003F4802F0B3FE0124EDE73E4802F0AEFE51
:1088E0000124E8E73C4802F0A9FE0124E3E73B4805
:1088F00002F0A4FEE8E03A4802F0A0FE394802F097
:108900009DFE0124D7E72B4B1A7C93F826309A4220
:1089100005D1284BDA7C93F829309A4204D02548B7
:1089200000F1080100F090FB2F4802F087FEE5E718
:10893000204B1A7C93F826309A4205D11D4BDA7CE5
:1089400093F829309A4204D01A4800F1080100F047
:108950007BFB264802F072FED0E7254802F06EFE4F
:108960000124A8E7234802F069FE0124A3E7214877
:1089700002F064FE01249EE74FF4D451079805F0FD
:108980005FF9044608B1012495E71B4B802283F868
:1089900014234FF480121A6002F02CF9054B0122C7
:1089A00083F83420154A07991160154A136082E74D
:1089B000002B00100C3400102CEC01006CEA0100BC
:1089C00090EE010090EA0100B4EA0100D8EA01004B
:1089D00004EB010028EB01002CEA010048EB010048
:1089E00060EB0100C8EB010014EC0100FCEB01009E
:1089F00084EB0100A4EB010000E100E0483400102A
:108A0000443400103378002B3FF43DAF102B08BFE7
:108A100001223FF439AF754D754C0FCCC5F81E00DF
:108A2000C5F82210C5F82620C5F82A302068C5F8F8
:108A30002E00A3886B8607A9002003F09FFE002864
:108A40007FF435AF00221146079805F0A9FA0028F7
:108A50007FF434AF674A04AB07CA83E80700B26803
:108A60000492726805921946079803F0B5FE002833
:108A70007FF429AF5E49079803F024FF00287FF4B4
:108A800027AF079804F010F800287FF426AF584B62
:108A9000197A002000F092FA5448079B43600023A3
:108AA0000360FFF7BDFD00287FF41CAF022003F038
:108AB000F2F800230393ADF80A3003A94B48FFF7FF
:108AC00071FE00287FF413AF0DF10A014748FFF74C
:108AD000F9FD00287FF40FAF444B1A7C93F8263041
:108AE0009A4205D1414BDA7C93F829309A4204D05E
:108AF0003E4800F11E0100F0A7FA00220192009208
:108B0000134606213948FFF76DFD00287FF4FBAEC0
:108B1000364B1A7C93F826309A4205D1334BDA7CD7
:108B200093F829309A4204D0304800F1080100F04F
:108B30008BFABDF80A3043F40073ADF80A308DF8B3
:108B400008301B0A8DF80930284B1A7C93F8263020
:108B50009A4205D1254BDA7C93F829309A4204D009
:108B6000224800F11E0100F06FFA0223019302ABCC
:108B7000009300231A4601211C48FFF733FD00280B
:108B80007FF4D6AE194B1A7C93F826309A4205D161
:108B9000164BDA7C93F829309A4204D0134800F13E
:108BA000080100F051FA079803F0D2FF00287FF483
:108BB000D4AE1149079803F085FE00287FF4D2AEA9
:108BC000079803F071FF00287FF4D1AE074B197CA2
:108BD000002000F0F3F94FF4D451079805F08CF819
:108BE00000283FF4C9AE012465E600BF0C34001034
:108BF000202B001084EE01001434001070B58AB0F0
:108C0000B0F5001F29D213461A4A156801228DF8C3
:108C1000102000248DF811400593069007910894C8
:108C200009948DF80F4068680DF10F030093124B03
:108C300004A904F047FF0646C8B9104C01259DF869
:108C40000F3023B9284603F02EF8013CF7D19DF8E8
:108C50000F303BB130460AB070BD094802F0EEFC5F
:108C60000126F7E7074802F0E9FC0126F2E70126B2
:108C7000F0E700BF44340010A585010040420F001A
:108C80005CEC010084EC01002DE9F04F8BB0B0F5F5
:108C9000001F0AD21746474B1E688046A1EB000909
:108CA00006F11E0BDFF81CA11CE0434802F0C6FCD5
:108CB000012078E0327C96F826309A4204D1F27C8A
:108CC00096F829309A4271D006F10801304600F03A
:108CD000BBF9012067E03046FFF748FD9DF80F30F3
:108CE000002B5AD009EB0804002F5BD0327C96F899
:108CF00026309A4204D1F27C96F829309A4203D069
:108D00005946304600F0A0F9002201920092134625
:108D100006213046FFF766FC05460028CAD1327CA2
:108D200096F826309A4204D1F27C96F829309A427D
:108D300004D006F10801304600F086F901238DF8D1
:108D400010308DF81130B7F5807F87BFA7F5807799
:108D50004FF480733B462F460593CDF8188008F5F5
:108D6000807807940023089309938DF80F3070687A
:108D70000DF10F0300935346012204A904F0A2FE53
:108D8000B0B90E4C01259DF80F30002BA3D1284619
:108D900002F089FF013CF6D1A0E7094802F04EFC41
:108DA000012000E038460BB0BDE8F08F0120FAE763
:108DB0000120F8E7443400105CEC010040420F0051
:108DC00084EC0100A58501002DE9F04782B0B0F5E3
:108DD000001F11D20646002972D03C4B1C6801F1DD
:108DE000FF3929F47F6929F00F09814404F11E0A33
:108DF00000254FF0060832E0354802F01FFC01273D
:108E0000384602B0BDE8F087227C94F826309A42BA
:108E100004D1E27C94F829309A4253D004F108013D
:108E2000204600F011F90127EAE7227C94F8263069
:108E30009A4204D1E27C94F829309A4244D004F159
:108E40000801204600F000F90127D9E704F10801E4
:108E5000204600F0F9F8B145D2D006F58056227CC4
:108E600094F826309A4204D1E27C94F829309A4250
:108E700003D05146204600F0E7F8019500952B46B7
:108E80002A4641462046FFF7ADFB0028BCD101959C
:108E900000953346012220212046FFF7A3FB074619
:108EA0000028C2D12046FFF761FC227C94F82630CE
:108EB0009A42CBD1E27C94F829309A42CBD0C5E7D4
:108EC0000F469DE701279BE7012799E744340010EF
:108ED0005CEC010008B5044B1B68044A0D2158687E
:108EE00003F086FE08BD00BF44340010402B001084
:108EF00010B50D4B5A680D490D4802F09FFB01203B
:108F000000F048F8FFF7AAFC044648B1094802F00F
:108F100095FB094802F092FBFFF7DCFF204610BDED
:108F2000064802F08BFBF4E7382B0010C8EC010078
:108F3000CCEC010000ED01006CED01003CED010006
:108F400010B5FFF75BFE044608B9204610BD014688
:108F5000014802F073FBF8E7B4ED010010B5FFF72C
:108F600093FE044608B9204610BD0146014802F0B0
:108F700065FBF8E7E8ED010010B5FFF725FF0446B3
:108F800008B9204610BD0146014802F057FBF8E73A
:108F900014EE010010B50446064B1968522005F086
:108FA0005DFA2146522005F09BFA034802F046FB89
:108FB00010BD00BF602B0010A0EE010008B511B17C
:108FC000102915D008BD1A4B1968492005F046FA3A
:108FD000184B1968402005F041FA174B19684120D9
:108FE00005F03CFA154B1968482005F037FAE9E717
:108FF0000F4B1968492005F031FA0E4B19684020D3
:1090000005F02CFA0C4B1968412005F027FA0C4B9F
:109010001968422005F022FA0A4B1968432005F02E
:109020001DFA064B1968482005F018FACAE700BF78
:10903000482B00104C2B0010502B00105C2B001004
:10904000542B0010582B001070B504460D46406894
:1090500003F07EFD70B92946606803F033FC80B9E7
:10906000606803F021FD064680B9297A2068FFF781
:10907000A5FF04E00146084802F0E0FA0126304668
:1090800070BD064802F0DAFA0126F8E7034802F05C
:10909000D5FA0126F3E700BFBCEE0100A4EB010006
:1090A00038B50446074800F023FB074D50232A46F5
:1090B000002100F055FB50222946204605F0FAFA1F
:1090C000204638BDECEE01004C34001084B008B5E9
:1090D0000DF1080C8CE80F00054800F009FB502347
:1090E00002AA002100F0A0FBBDE8084004B07047D0
:1090F000ECEE01002DE9F04F89B002910392049348
:10910000046814F0010403D0002009B0BDE8F08F1A
:1091100005460026069600F1180205929146104673
:1091200000F0E6FA07464A462649304602F0A4FD1A
:10913000002F42D04FF4806005F09CFA06460028CC
:109140003DD0D5F80480B8F1000F26D04FF48069E7
:109150004FF0000B0DF1180ADDF810804A46214649
:10916000384600F0C5FB4A465946304605F0B0FA8D
:10917000CDF804A000964346039A0299284600F0D1
:1091800087FC069B32462146384600F04DFB069B85
:109190001C446B68A342E1D89846304605F072FA49
:1091A00000230793D5F818310093434607AA0121FD
:1091B000059800F0E0FCC0B2A7E7FF20A5E7FF207C
:1091C000A3E700BFF0EE01002DE9F04FA5B050225B
:1091D000002110A805F07CFA00F076F8B0F1FF3F0E
:1091E00012D000F0B1F8064600F0B4F8804602460E
:1091F0002749002002F040FD002E47DD00242546CF
:10920000244FDFF89CA00BE02349002002F034FD3E
:109210004FF0FF3037E0013504F5A674AE4231D08F
:109220003B6818191B595B08012BF4D153460122E6
:109230004146FFF75FFF0028EDD10DF14009484698
:10924000FFF72EFF4FF0000BCDF844B0EC460DF1C8
:10925000500EBEE80F00ACE80F00BEE80F00ACE80F
:109260000F00BEE80F00ACE80F009EE80F008CE88E
:109270000F0099E80F00FFF729FF0849584602F050
:10928000FBFCC8E7002025B0BDE8F08F0020FAE71E
:1092900024EF0100EC34001000EF010040EF01006A
:1092A00034EF010000F10D0390F90D200D2A09D0D3
:1092B00013F9010F0A2805D001F8012B93F90020BA
:1092C0000D2AF5D17047000070B51B4800F010FA68
:1092D00006461A4C50252A460021204605F0F8F98A
:1092E0002B4622460021304600F03AFA0546A46A91
:1092F0004FF4A67303FB04F4204605F0BBF9104BB2
:109300001860A8B1024604F150010E4B19602346C3
:109310002946304600F024FA084BDA6A2146084B09
:10932000186800F019FC003818BF0120404270BDD9
:109330004FF0FF30FBE700BF34EF01009C3400101A
:10934000EC340010F0340010014B986A704700BFF5
:109350009C340010014B93F9300070479C3400108E
:1093600038B500F031F8041E02DB00F067F904465E
:10937000002C11DD0F4B1B780BB1204638BD0D4B77
:1093800001221A700C4A0D49002002F075FC0C49AC
:10939000002002F071FCF0E70025064B1D70064A24
:1093A0000849284602F068FC0549284602F064FC9A
:1093B000E3E700BFF434001050EF010058EF010064
:1093C00010EC01008CEF01002F4B1B780BB100203B
:1093D00070472DE9F04385B002222C49002002F0AD
:1093E0004BFC2B49002002F047FC2A4D05F10809EF
:1093F000DFF8B8801827264E55F8044BA36A0BB344
:10940000E36A53B3236B002B32D0636A03B19847EE
:10941000236A0393E3690293A369019300943B4693
:109420003A464146002002F027FC3146002002F077
:1094300023FC4D45E0D1144B01221A70002005B0E9
:10944000BDE8F083144B154A1549002002F014FCC6
:109450000F49002002F010FCFEE70F4B114A1049A3
:10946000002002F009FC0A49002002F005FCFEE79A
:10947000094B0D4A0A49002002F0FEFB0449002076
:1094800002F0FAFBFEE700BFF5340010C0EF010068
:1094900010EC0100F4F00100E4F00100ECEF010039
:1094A00008F0010028F0010044F0010060F0010024
:1094B00010B5164B1B7883B10446C8B11822144965
:1094C00005F0FEF9F8B118221249204605F0F8F926
:1094D0000028104818BF002010BD0F4B0F4A10493C
:1094E000002002F0C9FB0F49002002F0C5FBFEE797
:1094F000094B0D4A0A49002002F0BEFB0949002031
:1095000002F0BAFBFEE70248E6E700BFF5340010C0
:10951000E0F70100A8F70100CCF00100BCF0010069
:1095200008F0010010EC0100C4F001002DE9F04347
:1095300087B0384B1B68C3B1374A17683C1D07EB2F
:1095400083170437092604252046FEF763FE85426B
:1095500038BF054604F11800FEF75CFE864238BFAE
:1095600006464034BC42EFD101E0092604252B49D0
:10957000002002F081FB2A4C2146002002F07CFBF7
:10958000284B0393182302930196274A00922A46F8
:109590002649002002F070FB2146002002F06CFBFF
:1095A0002349002002F068FB2146002002F064FB02
:1095B000184B1B681BB30024DFF85C90DFF8788041
:1095C0002746D9F8002002EB8412936B0593536B66
:1095D000049302F11C0303931823029301960432AF
:1095E00000922A464146384602F046FB0C4938466E
:1095F00002F042FB0134074B1B68A342E1D80D493E
:10960000002002F039FB0649002002F035FB07B0CC
:10961000BDE8F083FC340010F8340010FCF00100C9
:1096200010EC01006CF10100C4F001003CF10100FC
:1096300078F10100E0F10100B8F10100254B1B7841
:109640006BB92DE9F04182B0234B244A1A60244BB8
:109650000A221A600024204D224F234E11E0204B95
:10966000186870472A6842441C32394602F004FBED
:109670003146002002F000FB0134194B1B68A34265
:109680001DD94FEA8418286800EB84101C30FFF7BE
:109690000FFF0028E6D02A684244536BC1698B4211
:1096A000EADB009104321149002002F0E5FA0E498C
:1096B000002002F0E1FA0A4B00221A6002E0054B9A
:1096C00001221A70FFF732FF054B186802B0BDE89F
:1096D000F08100BFF6340010F834001028F50100C6
:1096E000FC34001020F2010010EC01004CF20100EB
:1096F0002DE9F041134B1B78C3B10646124BD3F84A
:1097000000800027B8F1000F0DD0104B1C68002519
:109710002746211D3046FEF773FD20B10135403448
:109720004545F5D100273846BDE8F081084B094A88
:109730000949002002F0A0FA0849002002F09CFA32
:10974000FEE700BFF6340010FC340010F8340010BF
:1097500014F50100BCF0010008F0010010EC01005C
:109760002DE9F041D0B10D4614461E460746FAB128
:10977000CB18826B934226D800F11C084046FFF7B5
:1097800097FE034650B3786B9B6A324621462844C5
:109790009847041E2EDB2046BDE8F0811A4B1B4A79
:1097A0001B4902F069FA1B49002002F065FAFEE746
:1097B000154B194A1649002002F05EFA154900209F
:1097C00002F05AFAFEE71549002002F055FA114955
:1097D000002002F051FA4FF0FF34DCE73B1D424617
:1097E0000F4902F049FA0B49002002F045FA4FF008
:1097F000FF34D0E742460B49002002F03DFA05490C
:10980000002002F039FAC6E700F501009CF20100E1
:1098100008F0010010EC0100A4F20100A8F2010020
:10982000E0F201002CF301002DE9F041D0B10D462A
:1098300014461E460746FAB1CB18826B934226D8CF
:1098400000F11C084046FFF733FE034650B3786B27
:10985000DB6A3246214628449847041E2EDB204608
:10986000BDE8F0811A4B1B4A1B4902F005FA1B495F
:10987000002002F001FAFEE7154B194A16490020B4
:1098800002F0FAF91549002002F0F6F9FEE7154951
:10989000002002F0F1F91149002002F0EDF94FF03B
:1098A000FF34DCE73B1D42460F4902F0E5F90B4966
:1098B000002002F0E1F94FF0FF34D0E742460B49B7
:1098C000002002F0D9F90549002002F0D5F9C6E7D9
:1098D000ECF401009CF2010008F0010010EC010022
:1098E000A4F2010060F3010098F30100E4F3010029
:1098F000F8B5B0B10C46154606468B18826B9342FC
:1099000019D800F11C073846FFF7D2FD0346E8B12D
:10991000706B1B6B294620449847041E22DB2046AF
:10992000F8BD154B154A164902F0A6F91549002055
:1099300002F0A2F9FEE71449002002F09DF9114956
:10994000002002F099F94FF0FF34E8E7331D3A4662
:109950000E4902F091F90B49002002F08DF94FF009
:10996000FF34DCE73A460A49002002F085F9054950
:10997000002002F081F9D2E7D8F401009CF2010046
:1099800008F0010010EC01001CF4010054F4010087
:10999000A0F40100002070470020704710B50B466E
:1099A00014460146184604F085FE204610BD00000E
:1099B00008B502F10F0323F00F0300F10F029B081B
:1099C00022F00F02034804F0ABFC003818BF01205E
:1099D000404208BD2143341208B5FFF789FA003828
:1099E00018BF0120404208BD10B51446FFF7A8FA81
:1099F00000280CBF20464FF0FF3010BD08B5FFF720
:109A0000ADFA003818BF0120404208BD08B5FFF785
:109A1000B3FA003818BF0120404208BDF0B583B04A
:109A2000044617461E46174D2D6815B94268154B5A
:109A30001A60012902D0002003B0F0BD3846FFF7BC
:109A400057FEB8B10F490B68B3F5806F28BF4FF4CC
:109A500080636268D21A0A603246D4F81C11FFF79C
:109A60007FFE089B1860D4F81C311844C4F81C0110
:109A70000020E1E700973B23034A044902F0FCF889
:109A8000FF20D9E7003500102CF8010018F801007C
:109A900011461A4690F848310BB10020704700B5C6
:109AA00083B0059B0093049BFFF7B8FF03B05DF8FC
:109AB00004FB2DE9F043ADF20C4D1F46002301934A
:109AC000012904D000200DF20C4DBDE8F0830546BD
:109AD00014464FEA97284FF48062194602A804F012
:109AE000F7FD2846FFF704FE8146B7F5806F19D3CE
:109AF00000264FF480652B4602AA21684846FFF7EE
:109B00002FFE226802F58062226001AA294602A87F
:109B100000F03AF82A46002102A804F0D9FD0136E7
:109B2000B045E8D8C7F309073FB90198DDF82834F4
:109B3000C01A18BF4FF0FF30C5E73B4602AA2168A4
:109B40004846FFF70DFE23683B44236001AA3946CF
:109B500002A800F019F8E8E710B582B01446002317
:109B6000019301AA00F010F80198001B18BF4FF0F4
:109B7000FF3002B010BD10B582B0049C0094FFF716
:109B800098FF02B010BD000030B4146871B10B46EC
:109B9000411E013B1844074D11F8013F83EA14634D
:109BA00055F8233083EA04248142F5D1146030BC97
:109BB000704700BF38F8010008B5024B1B6803B1BD
:109BC000984708BD38FC01004EF60853CEF200035A
:109BD0001860036842689D46104708B5FFF7F4FF18
:109BE00008BD08B500F002FE0021084600F0E6FEC0
:109BF00000F002F808BD0000034A136843F01003A8
:109C000013600020704700BF0048004010B582B0CC
:109C1000044600F0F3FF0190606A83681968226AC5
:109C200022F0FF03C9B20B43D21A002AB8BFA3F532
:109C30008073E36143681B68E360019800F0E2FF12
:109C400002B010BD0A285ED800295ED04B68002BF8
:109C50005DD0002A5DD0F0B50C68012C5BD9304B8B
:109C60002C2505FB0033DB7813F0010F55D12C4D6B
:109C70004FF02C0C0CFB00FE05EB0E03E4009C6186
:109C80004C685C60DC605C611C610E684C6804EBD5
:109C9000C6049C60DC7844F001046FF34104DC707E
:109CA00055F80E401F4E66F3170445F80E401E4E41
:109CB00000EB800406EBC4045C620024DC611C62DF
:109CC00000EB800706EBC706B66834605E6AF6688C
:109CD0003460D3F824E0DEF810703E68DEF814E05B
:109CE00046EA0E063E605E6A77684E683E605B6AD2
:109CF0001E680B7A5B0003F0020333600CFB005517
:109D000015602046F0BD05207047062070470620EC
:109D10007047062070470620F4E70720F2E700BFEF
:109D200004350010CDCDCD003CFC010000B310B5D2
:109D30000446036823F07E43104A93421AD1C37845
:109D400013F0020F18D182680D4B9A420BD8636A48
:109D50001A68136843F001031360E37843F00203C9
:109D6000E370002010BD0021012002F029F8EEE789
:109D7000022070470220F5E70020F3E7CDCDCD01AA
:109D8000FFFF0510A8B1026822F07E420C498A420A
:109D900011D1C27812F0020F0FD0426A11680A681E
:109DA00022F001020A60C2786FF34102C270002003
:109DB000704702207047022070470020704700BFA4
:109DC000CDCDCD01002845D0F8B50E4617461D462D
:109DD0000446006820F07E40254B98423CD1002A82
:109DE0003CD0002D3CD0226963699A4201D0072003
:109DF00033E02046FFF70AFFE369226A9B1A13F15A
:109E0000FE0F2FD42369E268934214D3B11C4FEAAA
:109E1000C10C03EBC101A068814211D9ACF1080C5F
:109E200061688C4462451FD91A46616A49681960A5
:109E30006368536004E0711C03EBC1018A4215D9C9
:109E40003B60226A013222622A6003EBC60363612F
:109E5000002002E0022070470220F8BD0620FCE747
:109E60000620FAE70520F8E70520F6E70520F4E7E5
:109E7000CDCDCD0178B1026822F07E4209498A42F7
:109E80000BD1026941698A4209D04261026A013AF2
:109E900002620020704702207047022070470720AE
:109EA000704700BFCDCDCD0120B310B50446036887
:109EB00023F07E43124A93421ED1436902699A42BB
:109EC0001CD0426A926811431960026A5A600833D2
:109ED0004361036182680B4B9A4206D8636ADB6870
:109EE00094F820201A60002010BD0021012001F00C
:109EF00067FFF3E7022070470220F5E70720F3E74A
:109F0000CDCDCD01FFFF051000282FD038B50C4670
:109F10000546036823F07E43174A934228D100295F
:109F200028D0FFF773FEEB6923602B6AA360696991
:109F30002A69914218BF013B63606A6A93691B6892
:109F4000D269134214BF0122002222736A6A526A44
:109F5000134214BF0122002262736A6A126A13421A
:109F600014BF01230023A373002038BD02207047D3
:109F70000220FAE70620F8E7CDCDCD0120B338B5B1
:109F80000D460446036823F07E43114A934201D0F4
:109F9000022038BDFFF73AFE1DB9E269236A9A42F2
:109FA00014D1E3786FF30003E370636A1A681368EF
:109FB00023F001031360616A0A691368496923EA9F
:109FC000010313600020E4E7022070470320E0E76C
:109FD000CDCDCD01002832D08446036823F07E43E6
:109FE0001A4A93422DD1C37813F0020F2BD010B42C
:109FF000436A1A68136823F001031360416A4C68CE
:10A0000023681A68886822F00101814208D09442CE
:10A010000CBF5B6808331A6822F001018142F6D157
:10A020001860DCF82420526813609CF803306FF34A
:10A0300041038CF8033000205DF8044B7047022088
:10A040007047022070470020704700BFCDCDCD0182
:10A05000034628B3026822F07E4214498A4221D185
:10A06000C27812F0020F1FD1426A11680A6822F00A
:10A0700001020A604268C260426102610020D86148
:10A0800018625A6A926810605A6AD26810605A6AF6
:10A09000526859681160DA7860F34102DA707047EB
:10A0A000022070470220704707207047CDCDCD01B8
:10A0B00048B310B50446036823F07E43154A934223
:10A0C00023D1436902699A4221D0426A92681A6098
:10A0D00000225A60426A5268114399604268DA600D
:10A0E00010334361036182680B4B9A4206D8636A5E
:10A0F000DB6894F820201A60002010BD00210120A8
:10A1000001F05EFEF3E7022070470220F5E707202A
:10A11000F3E700BFCDCDCD01FFFF0510002900F012
:10A1200096800B4618B1012821D0062070470020E8
:10A130000870484A5169C1F3010159705169C1F36E
:10A14000810199705169C1F38011D9705169C1F3CE
:10A15000C01119715169C1F3002159715169C1F3DD
:10A16000402199715269C2F38022DA71704730B48C
:10A17000384A106808605168596091689960D568DC
:10A18000C0F303210131344C2C402143C0F3033090
:10A19000013041EA0011D9601169196151695961B1
:10A1A000012199615169C1F381012C4830F81110E6
:10A1B000890299624FF4C0211962516901F0030CC0
:10A1C000506900F00300264931F82C2001EB800192
:10A1D00049880A4492025A622249D1F8E020D2B258
:10A1E000DA62D1F8E40000F00F0042EA0022DA62FD
:10A1F000D1F8E420C2F303121A63D1F8E80000F0AA
:10A200000F0042EA00121A63D1F8E80000F0F000F3
:10A210005863D1F8EC20C2F3031202435A63D1F819
:10A22000FC2012069A63D1F8F800C0B242EA00425C
:10A230009A63D1F8F400C0B242EA00229A63D1F8DE
:10A24000F010C9B20A439A63002030BC7047062060
:10A25000704700BF0000024000FF0F00F4FD010046
:10A26000FCFD0100000F00F010B504460E4B1B680A
:10A27000B3F1FF3F05D0ACB10B4B1B68236000204E
:10A2800010BD094B012240F2C441104604F056F8BB
:10A2900020B9054B1B68B3F1FF3FECD1024B002204
:10A2A0001A60E8E70620EBE7642B001010B582B0D7
:10A2B00004460378012B66D0022B6ED0002B55D0BC
:10A2C000A178524B5A6961F302025A6121795A69A5
:10A2D00061F3C3025A615B69012200923F224C493B
:10A2E000052004F098F8002840F0888000F18043B1
:10A2F00003F504339A69C2F300125B69C3F30013D8
:10A300009A427AD1414B9A69C2F340125B69C3F316
:10A3100040139A4274D13D4B9A6902F007025B697F
:10A3200003F007039A426DD1384B9A69C2F3C00219
:10A330005B69C3F3C0039A4266D16378002B36D0C1
:10A34000324BDA696FF30412DA616379002B34D08F
:10A350002E4BDA696FF3C302DA61E378072B4DD82D
:10A36000DFE803F031374C3E4C4C4C4503F1804361
:10A3700003F504335A696FF304125A615A696FF393
:10A3800045125A619CE7214B5A6942F010025A610A
:10A390005A696FF345125A6192E71C4B5A6942F0B1
:10A3A00010025A615A6942F020025A6188E7174A3E
:10A3B000D36943F01003D361C7E7144AD36943F06C
:10A3C0000803D361C9E7114AD36943F00703D36196
:10A3D00014E00E4BDA69062161F30202DA610DE046
:10A3E0000A4BDA69042161F30202DA6106E0074BE5
:10A3F000DA696FF30202DA6100E0012002B010BDF9
:10A400000120FBE70120F9E70120F7E700100240F7
:10A410001810024010B582B0044601782C4B5A6ADD
:10A4200061F301025A625B6A012200920322294908
:10A43000052003F0F0FF002831D100F1804303F53F
:10A4400004339A6A02F003025B6A03F003039A4240
:10A450003BD161781E4BDA6A61F38302DA62A1783C
:10A46000DA6A61F38712DA62E178DA6A61F3092263
:10A47000DA622179DA6A61F30512DA626379032B11
:10A4800008D8DFE803F0020E151C114AD36A43F026
:10A490000303D3620E4B1A6C6FF38B221A6402B063
:10A4A00010BD0B4BDA6A022161F30102DA62F1E7B7
:10A4B000074BDA6A012161F30102DA62EAE7044B31
:10A4C000DA6A6FF30102DA62E4E70120E7E700BF2E
:10A4D000001002402810024070B582B00C460646BB
:10A4E00098B1334B1B78002B43D100F087FB0190D0
:10A4F0002F4B01221A702F4B1D6825441D60002D23
:10A5000016DB3F2D15D93F2510E0294B1B7883B36F
:10A5100000F074FB0190264B00221A70254B1D6839
:10A520002D1B1D60954226DB3F2D3DD826B300E054
:10A530000025214B19680C441C60002C36DB402C94
:10A5400028BF3F24FEB11D4ED6F86C3365F3195376
:10A55000C6F86C33142003F027FFD6F8883064F374
:10A560000503C6F88830019800F04CFB142003F076
:10A570001BFF02B070BD00250F4B19680C1B1C603F
:10A58000002CDCDA00240D4ED6F8883064F3050385
:10A59000C6F88830142003F007FFD6F86C3365F353
:10A5A0001953C6F86C33DEE73F25E5E70024CAE718
:10A5B000E8360010F0360010EC36001000000240C3
:10A5C000F0B585B0182853D82B4A030102EB0011CF
:10A5D0004D68D45823682B424CD18F68CE6812281E
:10A5E0001AD000F00BFB039023681D4325600398ED
:10A5F00000F008FB0123009333463246394605201C
:10A6000003F009FF044620B93B6833420CBF012424
:10A610000024204605B0F0BD184B1968E1B900F0E0
:10A62000EDFA039023681D432560039800F0EAFAD1
:10A6300001230093334632463946052003F0EBFEF2
:10A64000044668B901231A460D49642003F0C2FE8E
:10A6500004460028D8D0DCE70120FFF73DFFDEE705
:10A66000064B19680029D4D00020FFF735FFD0E74A
:10A670000624CEE70024CCE70CFE010008370010CA
:10A68000101F0C40182800F28B80F0B585B00346EF
:10A690004449020101EB001044688D5828682040AD
:10A6A0005FD001EB03129768D668122B45D13E4B61
:10A6B000D3F8E03FC02B23D000F0A0FA03902B6822
:10A6C00023EA04042C60039800F09CFA0023009312
:10A6D000334632463946052003F09DFE002840D01F
:10A6E000B6F5F07F56D03ED9B6F5F05F46D0B6F558
:10A6F000E03F41D12B6813F4E03F3DD02B683BE0B5
:10A7000001231A462949642003F064FE48BB012353
:10A710001A462749642003F05DFE10BB224AD2F896
:10A72000803A43F00103C2F8803A224B19680029AD
:10A73000C2D00020FFF7D0FEBEE700F05FFA039022
:10A740002B6823EA04042C60039800F05BFA0023D2
:10A750000093334632463946052003F05CFE00285C
:10A76000BED105B0F0BD1E2E0ED0472E04D12B68F1
:10A7700013F0470F18BF2B680020F2E72B6813F483
:10A78000F05FF9D02B68F7E72B6813F01E0FF3D0BA
:10A790002B68F1E72B6813F4F07FEDD02B68EBE723
:10A7A000062070470CFE010000000C407C0A0C40A3
:10A7B000101F0C40083700100A4681B100230B70AF
:10A7C00018280ED8084B03EB001083681968C3687B
:10A7D000194214BF01230023137000207047062084
:10A7E00070470620704700BF0CFE010010B582B014
:10A7F0003D4B9B68C3F300533C4A13703C48FFF742
:10A8000055FD3C48FFF706FE4FF04024636C43F4CF
:10A810007C036364384801F0A1FA642003F0C4FDAE
:10A82000636C43F040036364344AD2F87C3343F0F2
:10A83000BF6343F4D023C2F87C33D2F844340421FC
:10A8400061F30F23C2F844342D4B1B78FBB9134638
:10A85000D2F86C23C2F305522A490A60D3F8882043
:10A8600002F03F0228490A60D3F86C23920E274970
:10A870000A60D3F88820C2F3854225490A605B6CE0
:10A88000C3F3C613234A13601D4B01221A701D4BDC
:10A890001A68214B1A601C4B1A68204B1A60204B17
:10A8A00000221A6001AB01224FF49261104603F0BE
:10A8B00045FD30B9019B13F0060F05D1184B03225B
:10A8C0001A60002002B010BD13F0020F03D1144B28
:10A8D00006221A60F5E713F0040F114B0CBF092292
:10A8E00000221A60EDE700BF00100240E8360010B9
:10A8F0009CFF0100A4FF01000000020000000240D4
:10A90000E9360010F4360010FC360010F83600105E
:10A910000037001004370010F0360010EC3600103D
:10A920000837001000B583B000230193224B1A6E44
:10A9300042F400321A661A6E42F480221A661A6EC7
:10A9400042F400221A661A6E42F480321A6601A896
:10A95000FFF78AFC019B012B1BD9174B1A6E6FF373
:10A9600004121A661A6E42F00E021A661A6E42F04D
:10A9700001021A661A6E6FF349221A661A6E42F4C1
:10A98000E0721A661A6E42F020021A6603B05DF891
:10A9900004FB094BD3F88030C3F30903062BDCD941
:10A9A000054BD3F8802002F2FA32D3F8801062F31C
:10A9B0000901C3F88010D0E70000024000B583B061
:10A9C00000230193032800F20B81DFE810F004005C
:10A9D000E300F600050101A8FFF746FC019B012BEF
:10A9E00051D9804BD3F848230A2161F39D62C3F803
:10A9F0004823D3F8482361F35032C3F84823D3F8EF
:10AA00005C2342F07072C3F85C23D3F85C2342F4F9
:10AA1000F052C3F85C23D3F8802342F00042C3F81D
:10AA20008023D3F8802342F08042C3F88023D3F8F8
:10AA30007023C2F305526C490A60D3F870236FF398
:10AA40001952C3F870230722C3F83C23654B1B68D7
:10AA500013F47F4F00F08B80644AD2F8003143F04A
:10AA60000103C2F800315F4BD3F8782342F0004273
:10AA7000C3F87823186810F47F4000F0AA80FFF72D
:10AA800051FF0020A5E0574BD3F878236FF31C62E9
:10AA9000C3F87823D3F858236FF39642C3F85823AA
:10AAA000D3F844130A2262F31C61C3F84413D3F8A9
:10AAB000441362F3CE21C3F84413D3F858130F2084
:10AAC00060F30C21C3F85813D3F8541341F4F01178
:10AAD000C3F85413D3F8601360F39A51C3F86013AA
:10AAE000D3F8601341F4F011C3F86013D3F848139E
:10AAF00062F39D61C3F84813D3F8481362F35031F1
:10AB0000C3F84813D3F85C2342F07072C3F85C2397
:10AB1000D3F85C2342F4F052C3F85C23D3F88023CB
:10AB200042F00042C3F88023D3F8802342F08042F1
:10AB3000C3F88023D3F87023C2F305522A490A6070
:10AB4000D3F870236FF31952C3F870230722C3F8A8
:10AB50003C23D3F840236FF39952C3F84023D3F832
:10AB60004023012161F38A12C3F840236EE7FFF707
:10AB7000D9FE1E4AD2F8003143F00103C2F8003179
:10AB800030231A461A49052003F024FC00283FF41C
:10AB90006AAF1EE000238DF803300DF1030112208F
:10ABA000FFF70AFE9DF803300BB9002011E01220D8
:10ABB000FFF768FD0028F8D00BE00A4BD3F82421FA
:10ABC000202161F38702C3F824210122C3F8202148
:10ABD000002003B05DF804FB0020044B5860F8E748
:10ABE0000620F6E700000240682B0010001002402B
:10ABF00008110240EFF3108062B67047EFF3108047
:10AC000072B6704780F3108870470000024B4FF413
:10AC10007002C3F88820704700ED00E010B582B0E4
:10AC20000446FFF7EBFF0190084B5A6B22F04042BD
:10AC3000002C14BF4FF040434FF000431343034A2E
:10AC400053630198FFF7DEFF02B010BD00EF00E094
:10AC5000E9B300B58C46420842EAC172830843EA70
:10AC600081738908D31841EB5C011A0942EA017229
:10AC7000D31841EB11111A0A42EA0162D31841EBD1
:10AC800011211A0C42EA0142D21841EB11418A18F3
:10AC900041F10001D20842EA4172C908831D4CF11A
:10ACA000000C4FEA810E4EEA927E9000801841EB34
:10ACB0000E0E00184EEB0E0E181A6CEB0E03000968
:10ACC00040EA0370801841EB13115DF804FB830820
:10ACD00003EB500303EB131303EB132303EB1343B7
:10ACE000DB08063003EB8302A0EB420003EB1010FD
:10ACF0000021704730B5864690F900302D2B20D0CA
:10AD0000002425469EF90020A2F13003DBB2092B76
:10AD10001CD8F44600200134A4EB0E0E0CEB0E04FC
:10AD200000EB800002EB400030381CF9012FA2F14B
:10AD30003003DBB2092BF1D901B10C6005B14042FF
:10AD400030BD00F1010E01242546DBE70020F3E7CA
:10AD50002DE9F04188B0904601AF3E4600250446FB
:10AD6000FFF776FFAC46013500EB8003A4EB43040C
:10AD7000303406F8014B50EA0103F0D1B8F1000F6E
:10AD800012D075B10CF120036B441B3B08F1FF326C
:10AD900013F8011D02F8011FBB42F9D10CF1010C9F
:10ADA000E044002388F80030284608B0BDE8F08170
:10ADB0000346101E0DDD00F1FF3C06E003F8011B09
:10ADC0000CF1FF3CBCF1FF3F02D0002BF6D1F7E7BE
:10ADD00070470020704700002DE9F04F89B004460D
:10ADE00091F90030002B00F0338393460025E9E011
:10ADF0002CB10A2B06D091F9003004F8013B013147
:10AE00000135DAE0C34B1B78002BF4D00D2304F896
:10AE1000013B0135EFE7013607A93046FFF76AFF2E
:10AE20008046079B1E44F1E0B11C96F90230A3F165
:10AE30004602322A00F20683DFE812F03F020403E2
:10AE400004030403040304030403040304030403CA
:10AE500004030403040304030403040304030403BA
:10AE60006801040304030403040304030403040348
:10AE70000403040304033300D20104033F02040368
:10AE80000403D201040304030403040304030403BE
:10AE90000403040304033E000403950104030403B4
:10AEA00070000E460BF104031CB1DBF8002004F81F
:10AEB000012B01359B467FE00E465BF8048BB8F111
:10AEC000000F00F0EC82434613F9011B002900F04B
:10AED000FF824FF0000909F1010913F9012B002A43
:10AEE000F9D1002F00F32C834346C8F10108A84490
:10AEF00006E008EB030513F9011F002900F0EC82BE
:10AF0000002CF6D004F8011BF3E7002393F900109E
:10AF10004FF000090029E7D19946DDE20E460123F2
:10AF200000E0002301220092002B00F0F7800BF1DB
:10AF3000070323F007039B465BF8088BD3F80490C4
:10AF4000002F40F0F08058EA090300F08982009B4E
:10AF5000002B14BF2727072702A8002108F00F03A2
:10AF6000092BC8BFDB190131303300F8013B4FEA30
:10AF7000181343EA09734FEA19129846914613438E
:10AF8000ECD1002C00F07382002900F0EA808C469E
:10AF900001F120030DEB0302193A631E5F1812F949
:10AFA000010903F8010FBB42F9D104EB0C034FF088
:10AFB00000021A700C440D44711C91F90030002BF2
:10AFC00000F04782252B7FF413AF91F90130302B2D
:10AFD00019BF01F101084FF0200A01F102084FF0FA
:10AFE000300A07A94046FFF785FE0746079B08EB96
:10AFF000030618F90320732A00F0A7820028B8BFBF
:10B0000047422E2A3FF407AF4FF0060896F900306A
:10B010006C2B40F09E8296F901306C2B3FF404AF0C
:10B020000136A3F14602322A00F20D8201A151F845
:10B0300022F000BFBDB2010047B4010047B40100D7
:10B0400047B4010047B4010047B4010047B4010010
:10B0500047B4010047B4010047B4010047B4010000
:10B0600047B4010047B4010047B4010047B40100F0
:10B0700047B4010047B4010047B4010019B1010011
:10B0800047B4010047B4010047B4010047B40100D0
:10B0900047B4010047B4010047B4010047B40100C0
:10B0A00047B4010047B40100A5AE0100E7B10100BB
:10B0B00047B40100BDB2010047B4010047B401002C
:10B0C000E7B1010047B4010047B4010047B40100F3
:10B0D00047B4010047B4010047B4010047B4010080
:10B0E00047B4010047B40100BBAE010047B4010002
:10B0F00097B1010047B4010047B4010001B101005C
:10B1000000230FE700231A4600930DE70E460023A5
:10B1100000930CE70C370010002300935BF8048BBE
:10B120004FF000090CE758EA09030CBF0122002286
:10B130000BD0C44649464FEA1C1343EA0173080981
:10B140009C46014601320343F5D1BA1A51462046C6
:10B15000FFF72EFE002C14BF034600231C440544B9
:10B16000F1E6234623E70E46012300E00023A3B1C6
:10B170000BF1070323F007039B465BF8089B5B6812
:10B1800000937FB9224648460099FFF7E1FD04B1DC
:10B190000444054410E70023E9E75BF8049B00231F
:10B1A0000093EEE7009959EA01030CBF4FF0010844
:10B1B0004FF0000807D04846FFF74AFD08F10108A4
:10B1C00050EA0103F8D1A7EB080251462046FFF7E9
:10B1D000EFFD002C14BF034600231C440544D1E7B7
:10B1E0000E46012300E00023002B41D00BF10703A2
:10B1F00023F007039B465BF8082B5B68002B3CDBC6
:10B2000000929946002F44D09C46002B4ADB104602
:10B21000614652EA0C030CBF4FF001084FF00008E2
:10B2200000F0778100230193FFF712FD08F1010878
:10B2300050EA0103F8D1A7EB0802019B002B00F0B4
:10B240006C81013ABAF1300F31D051462046FFF7F8
:10B25000AFFD002C00F00D8104440544019B002B40
:10B2600040F04E81224600984946FFF771FD16E0F6
:10B270005BF8043B1A46DB17C0E75142009163EBD1
:10B280004309002F40F0FE8014B12D2304F8013B48
:10B290000135224600984946FFF75AFD04B104449F
:10B2A000054489E65042024663EB430CAFE714B114
:10B2B0002D2304F8013B0135C7E70E46002C3FF46F
:10B2C0007BAE0BF1070B2BF0070BFBE80201FCF741
:10B2D000A9FF07EE900A14232360F5EE407AF1EE01
:10B2E00010FA1AD00146C0F3C757A7F17F02C0F386
:10B2F000160343F400031E2A00F39E8012F1170F79
:10B30000C0F29C80162A0CDDA7F1960003FA00F02B
:10B31000002928DBA14600272AE0C54B2360032231
:10B3200043E0002A16DBC2F1170243FA02F07E3F27
:10B33000BB4023F07F47002916DBA1464A46C117D0
:10B34000FFF706FD99F90030B3B119F9013F002B61
:10B35000FBD111E0D24343FA02F7002801DBA146FA
:10B3600007E0002000E00027A1462D2309F8013B5B
:10B37000F0B9302309F8013B2E2389F8003017BBC0
:10B3800009F10202302389F801304FF000031370F5
:10B39000121B0AD5B2F1FF3F52D0A64BA64912F1BB
:10B3A000020F08BF0B46236003221544144403E632
:10B3B0000028C3DC2D2309F8013B40424A46C1174F
:10B3C000FFF7C6FCBEE709F10102101BC0F1130034
:10B3D0008045A8BF8046B8F1000F0FDD08F10103DA
:10B3E0009944114607EB87077B00FF15303701F8BA
:10B3F000017B23F07F478945F4D1424407EB870363
:10B4000043F3C753042BC0DD531EA342BDD3A44650
:10B410004FF0300E04E001313970B6E76045B4D02A
:10B420001F4693F900101846013B2E29F6D0392902
:10B43000F1D183F801E0F1E77F4BB4E77C4BB2E751
:10B440007B4BB0E70E460CB104F8013B0135B3E588
:10B4500000250CB100232370284609B0BDE8F08F09
:10B4600030238DF808300CB1012190E50121002432
:10B47000A1E50544019B002B57D0BAF1200F7FF4C2
:10B4800008AF44E010461946002B04DB012301936A
:10B490004FF00008C8E6504263EB4301F6E7002F87
:10B4A0007FF733AD3A464FF00009A2EB090251464F
:10B4B0002046FFF77DFC002C14BF034600231C44EC
:10B4C000054498F9001000293FF476AD00270BE5FC
:10B4D000002F31DC4FF00009002F3FF46DAD7F42AB
:10B4E0004F457FF669ADA7EB090251462046FFF7AD
:10B4F0005FFC002C14BF034600231C4405445BE59D
:10B50000BAF1200F7FF4C5AE2D2304F8013B0135BD
:10B51000BFE6A7EB08020023019351462046FFF740
:10B5200047FC002C7FF498AE054400220098494661
:10B53000FFF70EFC0024B3E63A464FF00009B4E7EB
:10B540003A46B945BFF4D0ACAFE718F903304FF035
:10B550000608A3F14602322A3FF675AF01A151F861
:10B5600022F000BFBDB2010047B4010047B40100A2
:10B5700047B4010047B4010047B4010047B40100DB
:10B5800047B4010047B4010047B4010047B40100CB
:10B5900047B4010047B4010047B4010047B40100BB
:10B5A00047B4010047B4010047B4010005B10100F0
:10B5B00047B4010047B4010047B4010047B401009B
:10B5C00047B4010047B4010047B4010047B401008B
:10B5D00047B4010047B40100A5AE010071B20100FB
:10B5E00047B40100BDB2010047B4010047B40100F7
:10B5F00071B2010047B4010047B4010047B4010033
:10B6000047B4010047B4010047B4010047B401004A
:10B6100047B4010047B40100BBAE010047B40100CC
:10B620006DB1010047B4010047B4010023AF010030
:10B63000302E30003F2E3F00232E23000FB430B5B4
:10B6400083B00B4B1B688BB107AA0192094D069979
:10B650002846FFF7C1FB0446054B1B682846984760
:10B66000204603B0BDE8304004B070470024F7E73F
:10B6700010370010143700100369C26893429CBF52
:10B6800080681B18013B981A70472DE9F84304465F
:10B690000F461646C568D0F80890A9EB05089045F6
:10B6A00009D94068284403F005F8BFF35F8F35449B
:10B6B000E560BDE8F88340684246284402F0FAFF9E
:10B6C0003544A5EB09052A4607EB0801606802F03E
:10B6D000F1FFBFF35F8FE560EBE72DE9F843064626
:10B6E00088461746C5684FF000093469A54224BF53
:10B6F000B268A418013C621BB3685C1BBC4228BF43
:10B700003C46944228BF144670682246414628446D
:10B7100002F0D0FFA144A0443F1B2544B368AB42D4
:10B7200008BF0025BFF35F8FF560002FDDD14846CD
:10B73000BDE8F883144B03221A615A6113499961D9
:10B74000134ADA614FF480621A6200229A625A62E6
:10B75000DA6219660F495966102199661A67DA6626
:10B760005A670D4A1068C3F80700BFF35F8F0B4A92
:10B7700092E8030018609980BFF35F8F20229A71CE
:10B78000BFF35F8F704700BF143B0010D4FF010070
:10B79000CC3B0010BC3B0010E0FF0100E4FF0100C7
:10B7A000F8B50F461646184B451C05EB450503EB4F
:10B7B000C50500EB400003EBC000C46A012C11D0AA
:10B7C000022C1CD014B100242046F8BD2846FFF7F7
:10B7D00053FF8642F8D8324639462846FFF755FFD0
:10B7E0003446F1E72846FFF747FF3446864228BF34
:10B7F0000446224639462846FFF747FFE4E7284635
:10B80000FFF76BFF0446DFE7143B0010F8B5044672
:10B810000D4616460A4B93F900306BB1EFF31187D2
:10B820004FF0200181F31188324629462046FFF768
:10B83000B7FF87F31188F8BDFFF77CFFEEE700BF85
:10B84000143B00107047704710B504468268531CC3
:10B850004068834205D820688154A360E3680133BF
:10B86000E360A26863689A4200D010BD2168206935
:10B87000FFF7CCFFA368984219BF4FF0FF33E36096
:10B880000023A360F1E700002DE9F84F80460F4642
:10B8900015461E46DDF828900B99974225D33B4666
:10B8A0000122B3FBF5F301329D42FAD9B24238BF0F
:10B8B0003246924611F0010B1BD1B9F1000F18D09E
:10B8C00011F0020F13D0002E14BF20243024D145D4
:10B8D0000FD909F1FF3921464046FFF7B5FFD8F8E7
:10B8E0000C30002BF3DABDE8F88F0122DEE72024CC
:10B8F000EDE7D8F80C30002BF5DB012402E0013E27
:10B9000005FB04F4012EFAD8B7FBF4F39D42F7D9F6
:10B91000134E00E01C46B7FBF4F304FB1377F1561B
:10B920004046FFF791FFD8F80C30002B03DBB4FB47
:10B93000F5F3AC42EED2BBF1000FD4D0B9F1000F59
:10B94000D1D02024D145CED909F1FF392146404636
:10B95000FFF77AFFD8F80C30002BF3DAC3E700BF0B
:10B96000ECFF01002DE9F04F9BB083460C4690465A
:10B9700005AB159340231693002317931990189342
:10B98000DFF8F0A29FE0002602E046F00106013455
:10B9900094F90030233B0D2B2AD801A252F823F052
:10B9A000E9B90100F1B90100F1B90100F1B90100F3
:10B9B000F1B90100F1B90100F1B90100F1B90100DB
:10B9C000E1B90100F1B901008BB90100F1B9010041
:10B9D000F1B90100D9B9010046F002060134D7E7F8
:10B9E00046F004060134D3E746F008060134CFE7F9
:10B9F00094F90030A3F13002D2B2092A13D80025FD
:10BA000005EB850503EB4503A3F1300514F9013F70
:10BA1000A3F13002D2B2092AF2D92E2B05D0002789
:10BA200094F900301EE00025F7E7611C94F901301D
:10BA3000A3F13002D2B2092A0FD8002707EB8707FB
:10BA400003EB4703A3F1300711F9013FA3F13002E3
:10BA5000D2B2092AF2D90C46E2E70C460027DFE70A
:10BA600014F9013F23F00402682AF9D0252B00F0D5
:10BA7000E980A3F15802D2B2202A1FD8583B202BCC
:10BA80001CD8DFE803F0B01B1B1B1B1B1B1B1B1B65
:10BA90001B112C1B1B1B1B1B1B1B1B1B1B1BD01B3A
:10BAA0001BBE1BA21B1BB000D8F800301A1DC8F823
:10BAB000002093F9001015A8FFF7C6FE0134189B6B
:10BAC000002BC0F2C48014F9011B002900F0BF80D4
:10BAD00025293FF458AF15A8FFF7B6FEEFE7D8F8D1
:10BAE00000301A1DC8F80020D3F8009089EAE973E5
:10BAF000A3EBE973092B2BDD012219468AFB03C056
:10BB0000DB17C3EBA00301326329F6DC1346BA420C
:10BB100038BF3B46029335B1B9F1000F02DB16F096
:10BB2000040F00D0013D16F0020F00D09FB116F0B7
:10BB3000010F10D17DB10396029EAE420AD2013DA3
:10BB4000202115A8FFF780FE189B002BF5DAB5E73A
:10BB50000122DBE7039E189B002BAFDBB9F1000F3E
:10BB60000FDB16F0040F16D106F00303022B17D0DB
:10BB7000019600953B460A22494615A8FFF784FE28
:10BB80009CE7C9F100092D2115A8FFF75DFE189B60
:10BB9000002B93DBE8E72B2115A8FFF755FEF6E70E
:10BBA000002FE5D1002DE3D0029BAB4208D2013D2E
:10BBB000302115A8FFF748FE189B002BF4DA7DE72B
:10BBC000189B002BFFF67AAFD2E7D8F800301A1D89
:10BBD000C8F800201968019600953B460A2215A86E
:10BBE000FFF752FE6AE7D8F800301A1DC8F80020A7
:10BBF0001968019600953B46102215A8FFF744FEF0
:10BC00005CE7D8F800301A1DC8F800201D6815F947
:10BC1000011B00293FF452AF15A8FFF715FE189B32
:10BC2000002BF4DA4AE7D8F800301A1DC8F80020D3
:10BC300019680023019308230093102215A8FFF729
:10BC400023FE3BE7252115A8FFF7FEFD36E7189BED
:10BC5000002B05DD179A3AB9189B179A13441893CD
:10BC600018981BB0BDE8F08F05A95846FFF7CEFD28
:10BC7000F2E700BF676666660EB400B582B003AB3C
:10BC800053F8041B019301AAFFF76CFE02B05DF8A4
:10BC900004EB03B0704708B54FF47A7303FB00F070
:10BCA00002F082FB08BD08B502F07EFB08BD000073
:10BCB00000B583B0FEF7A2FF01904FF090431B6DDB
:10BCC00013F0040F0ED1BFF34F8F4FF090435A6D16
:10BCD00042F001025A6509490A685A6D42F00202AF
:10BCE0005A650B684FF09042536D13F0040FFBD070
:10BCF0000198FEF787FF03B05DF804FB0000FF47E3
:10BD000030B583B00546FEF779FF01904FF09044BF
:10BD1000236823F4407323600198FEF773FF6B7868
:10BD20001B0203F44073AA7843EA42032A78120103
:10BD3000D2B2134343F4801343F4806323600020A2
:10BD400003B030BD4FF090431A6842F001021A6010
:10BD50009A6842F001029A600020704710B582B0E4
:10BD60000446FEF74BFF0190FFF7A2FFFCB12379D9
:10BD700003F00103627843EA4203E278120202F41C
:10BD800070621343A278120402F4F81213434FF0C6
:10BD900090421365084B2068186022791A71074B8E
:10BDA0001B680198FEF72EFF002002B010BD4FF077
:10BDB000904306221A65F2E76C2B00100000FF4743
:10BDC00008B5032823D8DFE800F00602181DFFF7A6
:10BDD0006FFF002008BD4FF090431B6D13F0040F60
:10BDE00017D1BFF34F8F4FF09042536D43F00203D2
:10BDF0005365094B1B680020ECE70020FFF7AEFFFE
:10BE00000020E7E70548FFF7A9FF0020E2E706204A
:10BE1000E0E70020DEE700BF0000FF476C2B0010CA
:10BE20000346D0F83828012A04D0022A0AD041F467
:10BE30008140704741F4814040F020000222C3F865
:10BE4000382870474FF48040704710B4D0F850281D
:10BE50000132D0F84838B2FBF3F103FB112202EBB8
:10BE60004202D0F8544804EBC201436803F5802332
:10BE700060331B030020C3F8000154F83220C3F8DC
:10BE800008214A68C3F80C218A68C3F81021CA68DF
:10BE9000C3F800215DF8044B704700004368827AC4
:10BEA000192A3AD8DFE812F01A003B005B007B0049
:10BEB0009B00BB00DB00F60081019C01B701D101B2
:10BEC000F20112023302540275029602B702D8023E
:10BED000F902190311012D014901650103F58023C0
:10BEE00060331B03D3F88420012161F30402C3F8FB
:10BEF0008420D3F8842042F00072C3F88420D3F861
:10BF000090206FF30B22C3F89020407ADC4A40F275
:10BF10000311002808BF0A465A640020704703F541
:10BF2000802360331B03D3F88420022161F30402D1
:10BF3000C3F88420D3F8842042F00072C3F8842030
:10BF4000D3F890206FF30B22C3F89020407ACC4AAC
:10BF500040F20311002808BF0A465A64DDE703F5E2
:10BF6000802360331B03D3F88420052161F304028E
:10BF7000C3F88420D3F884206FF35962C3F8842077
:10BF8000D3F890206FF30B22C3F89020407ABC4A7C
:10BF900040F20311002808BF0A465A64BDE703F5C2
:10BFA000802360331B03D3F88420062161F304024D
:10BFB000C3F88420D3F884206FF35962C3F8842037
:10BFC000D3F890206FF30B22C3F89020407AAC4A4C
:10BFD00040F20311002808BF0A465A649DE703F5A2
:10BFE000802360331B03D3F88420092161F304020A
:10BFF000C3F88420D3F884206FF35962C3F88420F7
:10C00000D3F890206FF30B22C3F89020407A9D4A1A
:10C0100040F20F11002808BF0A465A647DE703F575
:10C02000802360331B03D3F884200A2161F30402C8
:10C03000C3F88420D3F884206FF35962C3F88420B6
:10C04000D3F890206FF30B22C3F89020407A8D4AEA
:10C0500040F20F11002808BF0A465A645DE703F555
:10C06000802360331B03D3F884200D2161F3040285
:10C07000C3F88420D3F884206FF35962C3F8842076
:10C08000D3F890206FF30B22C3F8902040F2FF32D8
:10C090005A6442E703F5802360331B03D3F88420FE
:10C0A0000E2161F30402C3F88420D3F884206FF3D7
:10C0B0005962C3F88420D3F890206FF30B22C3F8A1
:10C0C000902040F2FF325A6427E703F58023603363
:10C0D0001B03D3F88420012161F30402C3F88420F8
:10C0E000D3F884206FF35962C3F88420D3F89020EA
:10C0F000092161F30B22C3F8902040F2FF325A6409
:10C100000BE703F5802360331B03D3F8842002215F
:10C1100061F30402C3F88420D3F884206FF35962DA
:10C12000C3F88420D3F89020092161F30B22C3F8CF
:10C13000902040F2FF325A64EFE603F5802360332B
:10C140001B03D3F88420012161F30402C3F8842087
:10C15000D3F884206FF35962C3F88420D3F8902079
:10C160000B2161F30B22C3F8902040F2FF325A6496
:10C17000D3E603F5802360331B03D3F88420022128
:10C1800061F30402C3F88420D3F884206FF359626A
:10C19000C3F88420D3F890200B2161F30B22C3F85D
:10C1A000902040F2FF325A64B7E603F580236033F3
:10C1B0001B03D3F884200D2161F30402C3F884200B
:10C1C000D3F884206FF35962C3F88420D3F8902009
:10C1D0006FF30B22C3F8902040F2FF325A649CE6C2
:10C1E00003F5802360331B03D3F884200E2161F311
:10C1F0000402C3F88420D3F884206FF35962C3F893
:10C200008420D3F890206FF30B22C3F8902040F2E3
:10C21000FF325A6481E603F5802360331B03D3F8B1
:10C220008420112161F30402C3F88420D3F8842010
:10C230006FF35962C3F88420D3F890206FF30B2278
:10C24000C3F89020104A5A6467E603F580236033F0
:10C250001B03D3F88420122161F30402C3F8842065
:10C26000D3F884206FF35962C3F88420D3F8902068
:10C270006FF30B22C3F89020034A5A644DE600BFC7
:10C28000130000801F000080FFFF070003F58023DC
:10C2900060331B03D3F88420012161F30402C3F847
:10C2A0008420D3F884206FF35962C3F88420D3F834
:10C2B000902061F30B22C3F89020407A974A40F215
:10C2C0000311002808BF0A465A6426E603F58023B6
:10C2D00060331B03D3F88420022161F30402C3F806
:10C2E0008420D3F884206FF35962C3F88420D3F8F4
:10C2F0009020012161F30B22C3F89020407A874AF5
:10C3000040F20311002808BF0A465A6405E603F507
:10C31000802360331B03D3F88420012161F30402DE
:10C32000C3F88420D3F884206FF35962C3F88420C3
:10C33000D3F89020032161F30B22C3F89020407AB8
:10C34000764A40F20311002808BF0A465A64E4E521
:10C3500003F5802360331B03D3F88420022161F3AB
:10C360000402C3F88420D3F884206FF35962C3F821
:10C370008420D3F89020032161F30B22C3F890208E
:10C38000407A664A40F20311002808BF0A465A6400
:10C39000C3E503F5802360331B03D3F88420012118
:10C3A00061F30402C3F88420D3F884206FF3596248
:10C3B000C3F88420D3F89020052161F30B22C3F841
:10C3C0009020407A564A40F20F11002808BF0A46D2
:10C3D0005A64A2E503F5802360331B03D3F884205D
:10C3E000022161F30402C3F88420D3F884206FF3A0
:10C3F0005962C3F88420D3F89020052161F30B2201
:10C40000C3F89020407A464A40F20F11002808BF36
:10C410000A465A6481E503F5802360331B03D3F891
:10C420008420012161F30402C3F88420D3F884201E
:10C430006FF35962C3F88420D3F89020072161F389
:10C440000B22C3F89020407A354A40F20F110028A1
:10C4500008BF0A465A6460E503F5802360331B0376
:10C46000D3F88420022161F30402C3F88420D3F8B6
:10C4700084206FF35962C3F88420D3F890200721F9
:10C4800061F30B22C3F89020407A254A40F20F1145
:10C49000002808BF0A465A643FE503F5802360334D
:10C4A0001B03D3F88420012161F30402C3F8842024
:10C4B000D3F884206FF35962C3F88420D3F8902016
:10C4C0006FF30B22C3F89020407A144A40F2031114
:10C4D000002808BF0A465A641FE503F5802360332D
:10C4E0001B03D3F88420022161F30402C3F88420E3
:10C4F000D3F884206FF35962C3F88420D3F89020D6
:10C500006FF30B22C3F89020407A044A40F20311E3
:10C51000002808BF0A465A64FFE400BF13000080E9
:10C520001F0000807047D0F83038013303620023C9
:10C53000C361012380F83438436803F580236033F6
:10C540001B034022C3F8B422704738B50446D0F824
:10C550002808FDF717FC054660681B30FFF773F9E4
:10C56000284638BD70B582B0436803F58023603338
:10C570001B034FF40002C3F8B422416801F5802187
:10C5800060310903D1F8A03213F0010F1CD0054629
:10C59000134C01260EE0013C20D0304601F004FF90
:10C5A000696801F5802160310903D1F8A03213F0E8
:10C5B000010F09D0D1F8AC3213F0080FEBD0D1F84D
:10C5C000B83213F0800FE6D001220092002301F56B
:10C5D0008271044801F01FFF02B070BD0420FBE728
:10C5E000A1860100A086010070B582B004460D4608
:10C5F000FEF704FB0190D4F840683544C4F8405875
:10C600000198FEF7FFFA1EB10025284602B070BD62
:10C610002046FFF7A7FF05460028F6D100236362F6
:10C62000636803F5802360331B034022C3F80822AC
:10C63000636803F5802360331B03D3F8002242F0C4
:10C640004002C3F80022012384F83C382046FFF75B
:10C65000FCFBDAE710B5044640681B30FFF7F2F840
:10C66000D4F82808FDF762FB10BDF8B514461D4646
:10C67000466819B1012937D00020F8BD1B68B3F511
:10C68000803F72D2AB7C002B71D106F580266036DC
:10C69000360306F108031360AB68536006F10C0320
:10C6A0009360EB89D36016612A68437B1B0243EADF
:10C6B00002436A7943EAC2232A7943EA42232A7B66
:10C6C00043EA8213EA7943EA42132A7C43EA82234B
:10C6D0006A7C43EA0233AA79D201D2B2134343F00F
:10C6E000010363610020C8E76B68B3F1807F40D22B
:10C6F000D0F8383813B12B69002B3CD106F58026D1
:10C700006036360306F5807323630027676306F5FA
:10C7100084722261EA68626106F58672A261AA6883
:10C72000E26106F5887222626A686262A3622B780F
:10C730001B0103F030036A78920002F004021343F5
:10C7400043F00303E36206F52E73A36023602969B7
:10C75000FFF766FB60604FF48043E3606B69E3635F
:10C7600006F52D76A663384687E7052085E707207E
:10C7700083E7052081E707207FE70000022820D813
:10C7800009B3134B40F6C40202FB0033DB7813F00D
:10C79000010F1AD170B40E4C00FB02F2A31893F8EB
:10C7A00003C04CF0010C83F803C0A558094E66F392
:10C7B0001705A55058600020187398610B6070BC75
:10C7C000704705207047062070470720704700BF5C
:10C7D000CC3F0010BEBEBE00036823F07E43354A46
:10C7E000934263D1C37813F0020F61D130B444682F
:10C7F00004F5802360331B03D3F890206FF300020D
:10C80000C3F890200022C3F89C20C3F880204B6816
:10C81000294A40F6C40C0CFB042293610B68536157
:10C8200083695BB342694FEA820C03EB8202234DBA
:10C83000AA4294BF0122002280F8C0280BD903F13C
:10C840000F0222F00F02826103F00F03ACEB03032F
:10C850001B099B0043614369083B9A0044F647006B
:10C86000B0EB830F18D3144B40F6C40000FB043325
:10C870001348A0FB02021209C3F858280A7A0E4B8B
:10C8800040F6C40101FB04335A7201221A721A22C3
:10C890009A72002030BC7047074B40F6C40202FB7E
:10C8A00004334FF48072C3F85828E7E7022070473A
:10C8B00007207047BEBEBE01CC3F0010FFFF051031
:10C8C000398EE33838B5036823F07E43744A9342C7
:10C8D00040F0DE8005460C46037A002B00F0DA803B
:10C8E0004B785B0103F060038A78D201D2B21A431D
:10C8F0000B781B0203F47C5313438A7A022A21D05B
:10C90000032A22D0012A1AD0E17A0A0402F47C1206
:10C9100013434A1E1F2A00F2BF80DFE802F0191BF2
:10C920001B1BBD1BBD1BBDBDBD1BBDBDBD1BBDBD03
:10C93000BDBDBDBDBD1BBDBDBDBDBDBDBD1B43F4AE
:10C940000043E1E743F48043DEE743F44043DBE7A1
:10C9500043F08073627A43EA82626B6803F5802356
:10C9600060331B03C3F88420217CD3F8882061F353
:10C970000002C3F888201A6B6FF300021A63D3F821
:10C980009000697B474A024042EA011242F00C02E1
:10C99000E17B31B12178890301F47C210A4342F023
:10C9A0002002617B09B142F04002A17B09B142F053
:10C9B0008002617A090501F07C71207B41EA4031F7
:10C9C0000A43C3F89020A188E28842EA0142C3F8F2
:10C9D0009420227D120392B2618AC1F30B010A43B3
:10C9E000C3F898201A6B072161F307121A6300221B
:10C9F0006A73AA695AB32022C3F81421E27A013A71
:10CA00001F2A4BD8DFE802F0101031314A314A3189
:10CA10004A4A4A314A4A4A314A4A4A4A4A4A4A31C1
:10CA20004A4A4A4A4A4A4A31D3F818210C2161F34A
:10CA30000402C3F818211A6A1E2161F30D221A623A
:10CA4000D3F81821082161F30C22C3F81821237AA6
:10CA5000AB722846FFF722FA00206873A873E37AC6
:10CA60002B7342F210732B6113E0D3F818210821C5
:10CA700061F30402C3F818211A6A1E2060F30D2224
:10CA80001A62D3F8182161F30C22C3F81821DEE7EB
:10CA9000022038BD0720FCE70520FAE70520F8E76B
:10CAA000BEBEBE01031F00FC002844D0F0B585B017
:10CAB0000446036823F07E43224A93423DD1037A21
:10CAC000002B3CD083697BB30025C56105624768B4
:10CAD000416902934908019101268DF80C6007F124
:10CAE000080040F6C402184B02FB073201A9C0B28D
:10CAF000FDF7A8F8636803F5802360331B03134A2E
:10CB0000C3F8B422C4F8545884F83C58C4F84458C4
:10CB1000C4F83858C4F8405884F82C58C4F8305831
:10CB200084F82D68C4F85C58E37843F00203E3709E
:10CB3000002005B0F0BD022070470220F9E7072071
:10CB4000F7E700BFBEBEBE01F44700108000400002
:10CB500070B500283DD00446036823F07E43224A86
:10CB6000934238D1C37813F0020F37D0D0F8403851
:10CB7000B3BB056AB5BB8369C3B1FFF7E6FC08B177
:10CB8000054629E06668194B40F6C40202FB0633ED
:10CB9000D3F8280850B10121FDF7F0F9134B40F606
:10CBA000C40202FB06360023C6F82838E3786FF388
:10CBB0004103E370636803F5802360331B03D3F8FC
:10CBC000903013F0010F07D000210120FFF7F8F893
:10CBD00002E0022500E00225284670BD0025FBE7A3
:10CBE0000325F9E70325F7E7BEBEBE01CC3F0010E1
:10CBF0002DE9F04383B0002800F0FD851646074676
:10CC0000036823F07E43BE4A934240F0F685232911
:10CC100000F2F885037A002B00F0F685446822299B
:10CC200000F2F485DFE811F02300320045005700E0
:10CC30006C00790086009300A000B100BE00CB001C
:10CC40001B016E01BA01FA01A90116022202340287
:10CC50004502B202BB0259035D036E0398037604DA
:10CC60009104A004C30472059005B305CA05002E03
:10CC700000F0CE8504F58024603424033268236BF1
:10CC800062F300032363002500F0B8BD002E00F01E
:10CC9000C185336803F0E03525F06045002D40F094
:10CCA000BB8504F5802460342403C4F8B43200F05A
:10CCB000A5BD002E00F0B2853368072B00F2B085C9
:10CCC00004F5802460342403226B63F3071222638B
:10CCD000002500F093BD002E00F0A4853368022BE0
:10CCE00002D9072B40F0A08504F58024603424038A
:10CCF0000833226B63F307122263002500F07EBD28
:10CD000004F5802460342403D4F890306FF30C339E
:10CD1000C4F89030002500F071BD04F58024603423
:10CD20002403D4F8903043F48053C4F890300025A5
:10CD300000F064BD04F5802460342403D4F89C30F2
:10CD40006FF3DF73C4F89C30002500F057BD04F585
:10CD5000802460342403D4F89C3043F00043C4F8AA
:10CD60009C30002500F04ABD002E00F05F8504F5E0
:10CD70008024603424033278D4F8903062F3830343
:10CD8000C4F89030002500F039BD04F580246034EB
:10CD90002403D4F888306FF30003C4F888300025EA
:10CDA00000F02CBD04F5802460342403D4F88830CE
:10CDB00043F00103C4F88830002500F01FBD002EA9
:10CDC00000F0368504F5802360331B033178D3F8F7
:10CDD000882061F38202C3F888207178D3F8882014
:10CDE00061F3C302C3F88820B178D3F8882061F3D7
:10CDF0000412C3F88820F178D3F8882061F349122F
:10CE0000C3F888203179D3F8882061F38E22C3F8E3
:10CE100088207179D3F8882061F3D332C3F8882051
:10CE2000B179D3F8882061F31452C3F88820F179DE
:10CE3000D3F8882061F35952C3F88820317AD3F8A7
:10CE4000882061F39E62C3F88820717AD3F8882025
:10CE500061F3DF72C3F88820002500F0CFBC002EFC
:10CE600000F0E88404F5802360331B03717AD3F863
:10CE70008C2061F30302C3F88C20317AD3F88C2024
:10CE800061F30412C3F88C20F179D3F88C2061F39C
:10CE90004512C3F88C20B179D3F88C2061F3C71206
:10CEA000C3F88C207179D3F88C2061F30822C3F881
:10CEB0008C203179D3F88C2061F34A22C3F88C207E
:10CEC000F178D3F88C2061F3CB22C3F88C20B178B1
:10CED000D3F88C2061F30C32C3F88C207178D3F82E
:10CEE0008C2061F34D32C3F88C203178D3F88C203C
:10CEF00061F39032C3F88C20002500F07FBC00BFA6
:10CF0000BEBEBE01002E00F0978404F5802460347C
:10CF100024033278D4F8843062F31863C4F8843080
:10CF20007278D4F8843062F3D753C4F88430B2787E
:10CF3000D4F8843062F39653C4F884307279D4F80C
:10CF4000843062F30D23C4F884307279D4F89030C1
:10CF500062F39333C4F89030F278D4F8883062F3F7
:10CF60004913C4F888303279D4F8883062F38E23BC
:10CF7000C4F88830002500F041BC00210120FEF7F4
:10CF80001FFF04F5802460342403D4F890306FF33D
:10CF90000003C4F89030002500F030BC012C2DD0E7
:10CFA000022C33D014B3B268A24B1340727B02F050
:10CFB0000F021343327B120102F010021A4304F5F0
:10CFC000802360331B037088D3F89C1060F3090141
:10CFD000C3F89C10F088D3F89C1060F31941C3F893
:10CFE0009C10C3F88020002500F008BCB36803F152
:10CFF0006C43B3F1806FD6D30525FFE3B36803F12B
:10D000006843B3F1806FCED30525F7E3B36803F12E
:10D010006443B3F1806FC6D30525EFE3002E00F023
:10D020000D84B279F3799B0343EA42533268C2F329
:10D030000B021343727943EA0233327A520302F449
:10D040000052134304F5802460342403C4F8A03054
:10D050000025D3E304F5802460342403D4F8903011
:10D0600043F00103C4F890300025C7E304F58023A2
:10D0700060331B031A6842F480721A60D3F8902060
:10D0800042F01002C3F89020012343730025B5E35A
:10D0900004F5802360331B031A686FF308221A60BB
:10D0A000D3F890206FF30412C3F890200025457345
:10D0B000A4E3002E00F0C4833378C372192B00F26E
:10D0C000C183DFE803F00D0D0D0D0D0D0D0D0D0DE0
:10D0D0000D0D171722222D2D383843434D4D58582A
:10D0E00004F580246034240363686FF303036360F2
:10D0F000002583E304F5802460342403636801225F
:10D1000062F303036360002578E304F58024603450
:10D1100024036368032262F30303636000256DE365
:10D1200004F58024603424036368052262F303035A
:10D130006360002562E304F580246034240363689F
:10D14000072262F303036360002557E304F580249C
:10D150006034240363686FF30303636000254DE3C9
:10D1600004F58024603424036368092262F3030316
:10D170006360002542E304F580246034240363687F
:10D180000B2262F303036360002537E3002E00F0F7
:10D190005B8333788372FEF781FE00252EE33278BD
:10D1A00004F5802360331B03D3F8841062F3154128
:10D1B000C3F88410511E1F2900F24883DFE811F0E4
:10D1C00020003C003C003C0046033C0046033C0081
:10D1D0004603460346033C004603460346033C0021
:10D1E00046034603460346034603460346033C0004
:10D1F00046034603460346034603460346033C00F4
:10D20000D3F8841041F08071C3F88410D3F88410EF
:10D210006FF3D751C3F88410D3F884106FF396518D
:10D22000C3F88410B969002940F028833A730025B7
:10D23000E4E200BF0000FF03D3F884106FF318612D
:10D24000C3F88410D3F884106FF3D751C3F8841057
:10D25000D3F884106FF39651C3F88410B96900298C
:10D26000E4D02021C3F81411511E1F2900F2F082CE
:10D27000DFE811F00703070320002000EE02200082
:10D28000EE022000EE02EE02EE022000EE02EE02BE
:10D29000EE022000EE02EE02EE02EE02EE02EE02DE
:10D2A000EE022000EE02EE02EE02EE02EE02EE02CE
:10D2B000EE022000D3F81811082060F30401C3F82F
:10D2C0001811196A1E2464F30D211962D3F818117C
:10D2D00060F30C21C3F81811A8E7FFF743F90546DE
:10D2E0008CE290F8C03843B104F580246034240304
:10D2F0008023C4F8B432002580E200210120FEF72B
:10D300005FFDF1E7002E00F0A5828369002B00F09D
:10D31000A382347890F82C38A34200F09F8233B176
:10D32000022B08D1FFF71EF9054620B166E2036A19
:10D33000002B40F09582D7F82808FCF789FE0025DD
:10D34000FD61C7F830583D6287F82C48012387F803
:10D350002D38C7F85C5851E2002E00F0D380736876
:10D3600013F0E00F40F0D080B36803F0E03828F00D
:10D370006048B8F1000F40F0C98090F82C38012BBC
:10D3800040F0C680D0F838386BB10023C0F8383888
:10D3900090F8C038002B5AD004F5802360331B036B
:10D3A0002022C3F8B4223378002B00F09A8097F83B
:10D3B0002D38002B50D0C14601AB6A460321D7F867
:10D3C0002808FCF7FFFC0546002840F01782009D66
:10D3D00004F580246034240304F52E73AB602B60C5
:10D3E00004F52D742C61716848EA01013846FEF796
:10D3F00017FD68604FF48043EB60B36843EA0903AC
:10D400006B61FDF7FBFB04463378002B6BD00021EA
:10D41000D7F82808FCF74CFE0546002D6AD1D7F84E
:10D42000208008F101033B623378002B14BF0223F4
:10D43000002387F82C382046FDF7E4FBB8F1000FF5
:10D4400040F0DC813846FFF705F90546D6E10021BA
:10D450000120FEF7B5FC9FE701AB6A460121D7F832
:10D460002808FCF7AFFC0546002840F0C7819DF86E
:10D47000043007EB8303B94A9A62C3F82874220385
:10D48000B74B1344009A1360009B00225A60FDF7CB
:10D49000B5FB80460121D7F82808FCF705FD0546B5
:10D4A00058B93D6A6B1C3B624046FDF7ABFB65B16A
:10D4B0004FF480094FF040087EE74046FDF7A2FB9D
:10D4C000D7F82808FCF7D6FC98E13846FFF7C2F8F1
:10D4D0000546002840F092814FF480094FF0400843
:10D4E0006AE7C14668E70021D7F82808FCF7DCFCAA
:10D4F000054692E72046FDF785FBD7F82808FCF79C
:10D50000B9FC7BE1062579E1062577E1062575E181
:10D51000072573E1002E00F0A581D0F85438002BC8
:10D5200040F0A2810025C0F85058C0F840580123AF
:10D53000C0F84C383368C0F854387368894AA2FB85
:10D5400003231B09C0F8483858E104F580246034EF
:10D5500024034FF40013C4F8B4320123C0F8383860
:10D560000025C0F8445849E190F8C03873B104F57B
:10D570008024603424032023C4F8B4320023C7F885
:10D580003838D7F8443833B1002537E1002101207D
:10D59000FEF716FCEBE700213846FFF725F80546B5
:10D5A000002840F02B810023C7F8443826E1002EE4
:10D5B00000F0A680D0F82808002800F0A3803B6A7D
:10D5C000B3F5807F00F0A080F16801AB6A460331BB
:10D5D000FCF7F8FB054608B105250FE104F58024AA
:10D5E0006034240304F52E78009BC3F80080DDF836
:10D5F000009031683846FEF713FCC9F80400009B20
:10D6000008330093F36883B1B36853F83520009B67
:10D610001A60009BB26802EBC50252685A6001357D
:10D6200008330093F368AB42EED8B3690BB1009AAC
:10D630001A60009BC3F80080009B4FF480425A6040
:10D6400003F10802009204F52D749C607268DA60A0
:10D65000346984B39DF8043007EB83039C627269DC
:10D66000C3F82824FDF7CAFA8046211E18BF0121FD
:10D67000D7F82808FCF718FC054670BBD7F82090AF
:10D6800009F101033B62D7F830380133C7F830386D
:10D69000336953B3002387F82D38C7F85C38404608
:10D6A000FDF7B0FAB9F1000F40F0A8803846FEF758
:10D6B000D1FF0546A2E0D7F83838002BCAD197F839
:10D6C0002C38002BC6D1D7F85828D7F85C38B3EBE4
:10D6D000520F254B28BF1C46BCE74046FDF792FA87
:10D6E000D7F82808FCF7C6FB88E01CB10023C7F870
:10D6F0005C38D4E7D7F85C380133C7F85C38CEE73C
:10D7000006257BE0072579E0052577E0002E00F06F
:10D71000AD803378032B00F2AB807278012A00F2DF
:10D72000A98004F5802360331B03D3F8841062F3CF
:10D73000C711C3F884103178D3F8842061F34612FE
:10D74000C3F88420002559E0084B1B681B0E092BE9
:10D750000ED00123BB73002550E000BF27C5010098
:10D76000B4020640ABAAAAAA25C5010000000240E7
:10D7700004F5802360331B03D3F8902042F08062CD
:10D78000C3F890201A6842F400521A60E1E7474B50
:10D790001B681B0E092B02D00025BD732EE004F57B
:10D7A000802360331B03D3F890206FF39A62C3F891
:10D7B00090201A686FF34D321A60EDE7002E5BD0AF
:10D7C00004F5802360331B03717AD3F8842061F35E
:10D7D0009F62C3F88420D3F89020052161F30B22C7
:10D7E000C3F89020317BD3F8902061F34D32C3F819
:10D7F0009020002502E0022500E00225284603B023
:10D80000BDE8F0830625F9E70725F7E70625F5E7E4
:10D810000625F3E70625F1E70625EFE70625EDE700
:10D820000625EBE70625E9E70625E7E70625E5E710
:10D830000625E3E70625E1E70625DFE70625DDE720
:10D840000625DBE70025D9E70625D7E70525D5E737
:10D850000525D3E70625D1E70725CFE70025CDE746
:10D860000725CBE70625C9E70725C7E70625C5E74E
:10D870000625C3E70625C1E70625BFE72021C3F833
:10D880001411D3F818110C2060F30401C3F8181117
:10D89000196A1E2060F30D211962D3F818110820AF
:10D8A00060F30C21C3F81811C0E400BF000002406F
:10D8B0002DE9F04F89B00292002800F0F080024676
:10D8C000036823F07E437D48834240F0EA80937AE8
:10D8D0000A3BDBB2012B6BD98B7C002B40F0E6803E
:10D8E000136A002B40F0E480D2F84068002E40F02C
:10D8F000E18092F82C38022B00F0DE805468086832
:10D900000B795B0243EA00408B79DB01DBB2034316
:10D91000087B38B143F0400304F5802060300003F9
:10D92000CD89C560C87938B143F0200304F5802063
:10D93000603000038D688560087C08B143F4806323
:10D94000507B43EA00235E480068000E092804BFAC
:10D95000907B43EA4033487C43EA0033487908B17E
:10D9600043F4006343F0010304F5802560352D0383
:10D97000D5F8000203900020C5F800024FF0FF30F8
:10D98000C5F808022B608B79C3B1012B5AD0012353
:10D99000009302231A462946029800F03CFD0446F3
:10D9A0004FF0FF33C5F80832039BC5F8003279E029
:10D9B0008B6813F0030F8FD0072473E0022C3DD83F
:10D9C000486905900B680493D2F810904FEA930BC6
:10D9D000032B14D9A0F1040805F11C0A00270097B5
:10D9E0003B463F225146484600F015FD04460028BC
:10D9F00049D16B6948F8043F0136B345EFD8049B21
:10DA000013F003043FD0002300933F2205F11C01D3
:10DA1000484600F000FD074690B96B69079307AAD6
:10DA2000059901EB86030C4404EB860612F8011BF2
:10DA300003F8011B9E42F9D13C4624E0052422E074
:10DA4000044620E0022C28D8D1F80080B8F1000F5D
:10DA50009DD0D1F81490D2F810B0A9F1040705F1C7
:10DA6000180A3E4657F8043F2B6100230093102309
:10DA70003F225146584600F0CEFC0836A6EB090678
:10DA8000B045EED80446002C81D04FF0FF33C5F8E6
:10DA90000832039BC5F8003204E00524F5E70224B0
:10DAA00000E00224204609B0BDE8F08F0724F9E722
:10DAB0000724F7E70724F5E70724F3E7BEBEBE0116
:10DAC000000002402DE9F04383B0002800F0A2805E
:10DAD0000F4615461E460446026822F07E42564B0B
